:020000021000EC
:080000006F3000260000000033
:100008001705F5DF130545EE9705FEFF938585DF98
:100018001736FEFF1306C6F663FAC50083220500ED
:1000280023A0550011059105E3EAC5FE1735F5DF54
:10003800130585089735FEFF938585F41736FEFF6F
:10004800130606F463FAC5008322050023A05500B1
:1000580011059105E3EAC5FE1735F5DF1305C5055A
:10006800970500009385050A1386018363FAC50086
:100078008322050023A0550011059105E3EAC5FE7A
:100088001385018397350000938545BA6377B500DA
:10009800232005001105E36DB5FEB73237129382B0
:1000A800023E739002BC9D42739012BCBD42739095
:1000B8004280996293828208739002309702FEFF11
:1000C800938242D493E23200739052309702FEFF3B
:0C00D800938202027390123473002030F7
:1000E4000000010000000000DA020A20DC020A20FD
:1000F4000000000084040A2000000000000000004A
:1001040084040A2084040A20000000000000000087
:1001140084040A2084040A2084040A2000000000C5
:1001240084040A2084040A2084040A2084040A2003
:1001340000000000000000000000000000000000BB
:1001440000000000000000000000000000000000AB
:1001540084040A20000000000000000000000000E9
:1001640084040A2084040A2084040A2084040A20C3
:1001740084040A2084040A2084040A2084040A20B3
:1001840084040A2084040A2084040A2084040A20A3
:1001940084040A2084040A2084040A2084040A2093
:1001A40084040A2084040A2084040A2084040A2083
:1001B40084040A2084040A2084040A2084040A2073
:1001C40062100A2084040A2084040A2084040A2079
:1001D40084040A200000000084040A2084040A2005
:1001E40084040A2084040A2084040A20040B0A20BC
:1001F40084040A2084040A2084040A2084040A2033
:1002040084040A2084040A2084040A2084040A2022
:1002140084040A2084040A2084040A2084040A2012
:1002240084040A2084040A2084040A2084040A2002
:1002340084040A2084040A2084040A2084040A20F2
:1002440084040A2084040A2084040A2084040A20E2
:1002540084040A2084040A2084040A2084040A20D2
:1002640084040A2084040A2084040A2084040A20C2
:1002740084040A2084040A2084040A2084040A20B2
:1002840084040A2084040A2084040A2084040A20A2
:1002940084040A2084040A2084040A2084040A2092
:1002A40084040A2084040A2084040A200000000034
:1002B40084040A2084040A2084040A2084040A2072
:1002C40084040A2084040A2084040A2084040A2062
:1002D40084040A2084040A200000000084040A2004
:1002E40084040A20000000000000000084040A20A6
:1002F400000000000000000084040A2084040A2096
:1003040084040A2084040A2084040A2000000000D3
:1003140084040A2084040A2084040A2084040A2011
:1003240084040A2084040A2084040A2084040A2001
:1003340084040A20397101436EC619A039714153EE
:100344006AC866CA62CC5ECE19A0397101535AD00C
:1003540056D252D44ED64AD826DA22DC06DE3301EF
:100364006140828241114AC026C222C406C68282EA
:10037400B24D4101024D924C224CB24B4101024B11
:10038400924A224AB2494101024992442244B2406B
:10039400410182802A8309CA8383050023007300F4
:1003A4007D16050385056DFA82802A8311C6230014
:1003B400B3007D16050365FE828001A0B707EFBE7A
:1003C40037E700E0938707083CC701A0EFF29FF9E5
:1003D4002D20EF104035716513050520EF10A03A6C
:1003E40083A5018337350A20130545E8EF10301F34
:1003F4001305401FEF10403501A0B7170240D44346
:1004040098472146B18A6394C602B7060070758F77
:10041400370600506303C7146360E6021DC7B7477D
:100424009C1CB7060040938707806307D706B787ED
:100434007D01938707848DA0370600606300C71091
:10044400B767730793870794CDB790479447984746
:100454009305000A93F6060E21831377F7037D8A2A
:1004640005076392B608B767CD1D9387075033D746
:10047400E702B7070C2093870732B2979C23914673
:10048400B387E7026309D600856693860654B3D61C
:10049400C600858A91C2858323AAF1823716024059
:1004A400544237070C20130707319182BD8A3697CF
:1004B4001823B7060C209386063EB3D7E7005842AC
:1004C400416641830D8B3697182333D7E70023AC5D
:1004D400E182B7F600E083A606D1F18E91E2BA87F5
:1004E40023A8F18282809305000E6392B602D45B46
:1004F400B7070C2093870730C182B6979C23B78631
:100504007D0193860684B387D70285838DB79307CD
:1005140000086397F600B7479C1C9387078081BF48
:100524009307000C6397F600B767730793870794E4
:100534003DBFB7877D019387078415BFD85BB70795
:100544000C20938707304183BA979C2337877D011A
:1005540013070784B387E7023DBFB767CD1D9387B1
:1005640007501DBF01A00F00F00FB7270240C84776
:10057400058911E5C8474189133515000D058280A9
:10058400EFF25FDEAA840549F93F6318250199E07B
:10059400154529A0C93FFD14CDBFFDD8F5B3EFF231
:1005A4007FDCB7270240DC5737070010F98F8DCF67
:1005B400F9773379F5003705000AD9379147631481
:1005C400F502B72402409C483705000A93E7270048
:1005D4009CC823AA24019C4893E707049CC84D3770
:1005E4009C48F59B9CC84DB3FD77E1B7B7066745BA
:1005F400B7270240938636123797EFCDD4C313073B
:10060400B79AD8C3D4D3D8D38280372702401C4B9F
:10061400137505F0939707291CCB5C47858BF5FF71
:10062400372702405C47898BF5FF372702401306C2
:100634000010B386F50003A80600B386A70023A024
:1006440006010F00F00F5447898AF5FE9107E392E3
:10065400C7FE1C4B939757291CCBB7270240D8479A
:10066400058B75FF984B1317074998CB82809C45DF
:1006740003D8050013F7070193F8F7001DCB584D75
:1006840093E8180081468D4E414E3316D0283373BB
:10069400C800631C66001393160033966E0033770C
:1006A400C740D04133166600518F8506E39FC6FDCF
:1006B40058CD1377F80F1DCF1841814613038002DC
:1006C4003D4E930E8004A1453316D028337FC800D5
:1006D400631EE6016395670650C913962600331F0F
:1006E400CE003396C8003377E741518F8506E39DEA
:1006F400B6FC18C11307F00F637207055441014695
:10070400130E8002930E80042143130786003317CF
:10071400E028B375E800631FB7006396C70358C9A0
:1007240013172600BD45B395E5003397E800B3F6EB
:10073400B640D98E0506E31A66FC54C18280E39E56
:10074400D7F910C959BFE39DD7FD18C9D1BF3717D1
:1007540001409D479306078063F8B702938785FF9E
:1007640093F7F70F631AD506B70601408C468A073C
:100774003D473317F70033F7E54098C69846B3175B
:10078400F600D98F9CC682806308D502930707C000
:10079400630AF508631CE51637070140544B8A05C4
:1007A400BD47B397B700B3F7F6405CCB5C4BB315CA
:1007B400B600DD8D4CCB82803707014054438A0557
:1007C400BD47B397B700B3F7F6405CC35C43B315BA
:1007D400B600DD8D4CC38280930607C06304D50246
:1007E4006312E510B70601408C4E8A073D47331764
:1007F400F70033F7E54098CE984EB317F600D98F3B
:100804009CCE8280B70601408C4A8A073D47331745
:10081400F70033F7E54098CA984AB317F600D98F22
:100824009CCA82803707014054478A05BD47B39765
:10083400B700B3F7F6405CC75C47B315B600DD8D6F
:100844004CC782803727014013070780AE8763189F
:10085400E5043707014054538A05BD47B397B700F1
:10086400B3F7F6405CD35C53B315B600DD8D4CD3BF
:10087400828037270140130707806312E502B70619
:1008840001408C568A073D473317F70033F7E5409C
:1008940098D69856B317F600D98F9CD682803727FE
:1008A4000140130707C06317E5088A073D4733175C
:1008B400F7003316F6009D471347F7FF63FBB700B5
:1008C400B7070140945B758F98DB985B518F98DB79
:1008D4008280B7070140D457758FD8D7D857518F26
:1008E400D8D7828013070740E315E5F8B70601401F
:1008F4008C528A073D473317F70033F7E54098D207
:100904009852B317F600D98F9CD282801307074000
:10091400E31AE5F237070140544F8A05BD47B39700
:10092400B700B3F7F6405CCF5C4FB315B600DD8D6E
:100934004CCF82808280B7170240D4439847214627
:10094400B18A6394C602B7060070758F37060050EB
:10095400630EC7146360E6021DC7B7479C1CB70645
:100964000040938707806307D706B7877D01938785
:1009740007848DA037060060630BC710B767730741
:1009840093870794CDB79047944798479305000AF7
:1009940093F6060E21831377F7037D8A0507639D7B
:1009A400B608B767CD1D9387075033D7E702B7075B
:1009B4000C2093870736B2979C239146B387E702AE
:1009C4006309D600856693860654B3D6C600858A25
:1009D40091C285831CC137160240544237070C204C
:1009E400130707359182BD8A3697182393860181B0
:1009F400B3D7E7005842416641830D8B36971823DD
:100A0400B7F600E033D7E70058C183A606D1F18ECC
:100A140091E2BA871CC5371602405C4263DD0708C1
:100A24005C4237479C1C13070780AD83FD8B9507F9
:100A34003357F70258C582809305000E6392B602BD
:100A4400D45BB7070C2093870734C182B6979C23E5
:100A5400B7867D0193860684B387D7028583B1B7B1
:100A6400930700086397F600B7479C1C9387078099
:100A74002DBF9307000C6397F600B767730793873E
:100A8400079425B7B7877D019387078439BFD85B5F
:100A9400B7070C20938707344183BA979C23378781
:100AA4007D0113070784B387E70225B7B767CD1D18
:100AB4009387075005B75442B7070C209387873EA6
:100AC400AD829D8AB6978C235C42B7060C20938630
:100AD400463EB9838D8BB6979C233357B70089BFA5
:100AE40099C5371702405C4FC98F5CCF8280B71716
:100AF4000240D84F3375A740C8CF8280EFF29F865B
:100B04001A29F577FD177D8FFE2196254111D98F7E
:100B14001EA9DE215A252A84D58FB625AE84D58F09
:100B24008D669386369F758FD98F5EA55E29DA25EB
:100B3400B3C7070893F7F7CFD98F5EA90A85E53BBA
:100B4400924765459040B335F50281460A06330560
:100B5400F502EF00306F93064006B357D502130633
:100B6400F06313974700B377D5029207938727035F
:100B7400637AF60093070701B3C707081EA441016F
:100B84006FF09F80B3D7D702D98FFDB75E2589C593
:100B94009397D7285EA5828079777D17F98FDDBF7B
:100BA40093F5F51F4EA182800A216D8D3335A00087
:100BB4008280B73702403147A386E74093870740D6
:100BC4001387419098CB37070C201307474698CFDB
:100BD40009472389E702A3890702A38D0702238D0E
:100BE400E7028280011122CE3734024026CC4ACA61
:100BF4004EC852C656C40347644083477440130426
:100C040004409376F70F098B630B074C93F7F70FA8
:100C140013F7070393060002630CD704930600033B
:100C24006301D71431EF13F7F703630607128946FC
:100C34006318D70493F70704A1C78347B403014596
:100C440093F7C70F93E72700A30DF4028347B40378
:100C540093C74700A30DF4020E2493F5F50FEF009C
:100C6400B0278347B40393F7C70FA30DF40209A871
:100C740093F7F7036386E70213072002638EE70AFC
:100C8400B737024009472383E740938707407244FC
:100C9400E2445249C249324AA24A056173002030F3
:100CA40083D7018481E79147A309F40283C7618450
:100CB40093F70706F1F783C77184954613F7F70F87
:100CC4006380D7069947E31DF7FA03D70184930796
:100CD400F0031304000463E6E70003D401843344FF
:100CE400040803A981842286CA8513854190EFF004
:100CF4006FEA83D70184229923A42185818FB3C706
:100D040007081374F40F2390F184B7370240238843
:100D1400874203C72743134747002389E7428DB718
:100D2400B737024083C6374003C7E18393F606080A
:100D3400558FA381E740A9B78347A40393C747000E
:100D4400230DF4028347A40393F7C70F93E7270007
:100D5400230DF40235B793F707049DD383C7618449
:100D640005B799472309F402A309F40213874190B4
:100D74001C232383F1841C333623A383F1847E2331
:100D84005A23138641902390F1842392D184239192
:100D9400E18403C96184137909066315091283C5C3
:100DA40071842D4813F7F50F636EB80AB7350A201E
:100DB4009385C5E93347B7201843028703D7418495
:100DC4000D4621836308C70A636CE6008547630800
:100DD400F7028947630DF70281471309F00F91A0C9
:100DE40093071002E31AF7FE83D72184F5F7B73788
:100DF4000A20938727F523A4F184A5471DA0B737BC
:100E04000A20938707F623A4F1849C2319A8B737F3
:100E14000A20938707F4B82323A4F184BC33A207E0
:100E2400D98F03D7018463F4E7002390F18403D7B7
:100E340001849307F003130A000463E6E70003DA6E
:100E44000184334A0A0883AA818452861385419017
:100E5400D685EFF02FD4D29A23A451859307F00FAF
:100E64006312F906B73702401D472389E742A38975
:100E7400E74239B583D74184894693F7F70F6388EE
:100E8400D70263EAF60099EF9387818223A4F18461
:100E940001499C2379B7E391E7F4B7370A20938794
:100EA400C7EF95B7B7370A20938707F3A9BFB737BA
:100EB4000A20938747F181BF83D7418493F7F70FC3
:100EC400238FF18283C7618403D70184939747609A
:100ED40063D8071E9307000463E6E70083D7018401
:100EE400B3C7070803D701841D8F3347070893F757
:100EF400F70F2390E184373702402308F7429147E4
:100F04002309F742B5BB83C7F1831CA203D701842D
:100F14008547E3F9E7FA2390F1846DB783D74184D9
:100F240093F7F70FA38FF1820547238EE18259BF10
:100F340003C761847D8B19EF83D74184054793F7F9
:100F4400F70FE391E7F883C7D18393F7E70FA38EF5
:100F5400F1828DBF03C7618409467D8BE314C7F01A
:100F640083D7418493F7F70FE39E07EE83D621845A
:100F7400B73702409387074093F6F60F6389E6007C
:100F840013062008E390C6EE238DE70225BFA38D48
:100F940007020DBF03C761847D8B0DE783D74184AE
:100FA400054793F7F70FE39FE7EAB7370A2083C7AC
:100FB40077F493F70702E38707EA83C7D18393E7BC
:100FC400170071B703C6618409477D8AE31CE6E80C
:100FD40083D7418493F7F70FE39607E803D7218477
:100FE400B7370240938707401377F70F630BC700A7
:100FF40093062008E318D7E603C7A703136737004F
:1010040061B703C7B70313673700A38DE7025DBD5C
:1010140023000600E5BD83C7618423920190FD8B04
:1010240091EB83C7D183858BB5CB89471CA203D7AA
:101034000184C5B583C761840947FD8B6394E706C2
:1010440003D721841377F70F6315F702B7370240EC
:101054009387074083C7B7038D468D8B6394D7006E
:1010640085471CA283D70184E37EF7E42390E184BF
:1010740091BD03D72184930620081377F70F631AD1
:10108400D70237370240130707400347A7038D46AB
:101094000D8BE31ED7F8054718A251BF03D701846F
:1010A400894785BD83D70184E37EF7DA2390E18401
:1010B40055BB03D70184E3F7E7DA2390F1845DB3EA
:1010C400B73702409387074019E72388070211477F
:1010D4002389E70275B61147A389E70255B693F74A
:1010E400160099CFA38F0182238F0182A38E0182E0
:1010F400238E0182A30104006D3C85477CA041BE80
:1011040093F7460099C39147D5BF74A049B6B70772
:10111400034015479AABBAAB13070004F8CFB8D312
:10112400F8D31387419898D31387419498D7238F82
:1011340007080947A38FE7082383070AA383E70A5D
:101144008280011126CC22CE4ACA4EC852C656C449
:10115400B704034094249C3413F7F60FC18A6383C5
:10116400064C93F7F70F13F77700C18B639D073C89
:1011740009CF8947630AF7387244E2445249C249A5
:10118400324AA24A05617300203083C7F40993F7F9
:10119400F707A38FF40883C7F409A18B6387073487
:1011A40083C7F4099397476063C107341387419851
:1011B4001C233623238BF1841C33A38BF1847E23DD
:1011C4005A232398F184239AD1842399E18483C4F4
:1011D40061859386419893F4040695C483C7618519
:1011E4001307000293F707066382E70E83C761853E
:1011F40093F70704E1EFB70703401547238FE70888
:10120400A38FE70895BF83C571852D4813F7F50FA4
:10121400E363B8FEB7350A209385C5EC3347B7209E
:101224001843028703D741858D462183630FD70C6A
:1012340063ECE60085476308F7028947630DF7020C
:1012440081479304F00F91A093071002E31AF7FE6D
:1012540083D72185F5F7B7370A20938727F523AC81
:10126400F184A5471DA0B7370A20938707F623AC5E
:10127400F1849C2319A8B7370A20938707F4B8236D
:1012840023ACF184BC33A207D98F03D7018563F45F
:10129400E7002398F18403D701859307F003130A29
:1012A400000463E6E70003DA0185334A0A0883AAE7
:1012B4008185528613854198D685EFF0AF8DD29AF9
:1012C40023AC51859307F00FE387F4F283C761855C
:1012D4009397476063DC071E03D7018593070004D7
:1012E40063E6E70083D70185B3C7070803D7018501
:1012F4001D8F334707082398E18437070340231ED3
:10130400F7089947230FF70885BD83D74185894698
:1013140093F7F70F6388D70263EAF60099EF938790
:10132400818223ACF18481449C2385B7E39AE7F05E
:10133400B7370A209387C7EF1DBFB7370A209387B3
:1013440007F335B7B7370A20938747F10DB783D72B
:10135400418593F7F70F2387F1848DBF83C7F18409
:101364009CA203D701858547E3F2E7F62398F1842D
:10137400B1BF83D7418593F7F70FA387F18405475E
:101384002386E184A1B703C761857D8B19EF83D7D9
:101394004185054793F7F70FE39FE7E483C7D184BB
:1013A40093F7E70FA386F18415B703C761858946D0
:1013B4007D8BE312D7E483D7418593F7F70FE39C42
:1013C40007E283D7218593F7F70F638BE7001307B1
:1013D4002008E392E7E2B70703402383070AFDB539
:1013E40037070340A303F70AD5B503C761857D8B8F
:1013F400E30307E003C7618589467D8BE318D7ECD7
:1014040083D7418593F7F70FE39207EC83D72185C0
:1014140093F7F70F6381E70213072008E39DE7DCE6
:10142400370703408347670A93F7C70F93E717000B
:101434002303F70A61BD370703408347770A93F70D
:10144400C70F93E7170079BF2380060019BF83C72E
:101454006185239201980947FD8B6398E70403D7BC
:1014640021851377F70F6302F70213062008631828
:10147400C704370703400347670A05460D8B631308
:10148400C70098A203D70185C5B5B707034083C732
:10149400770A05468D8B6393C7009CA283D7018589
:1014A400E376F7E22398E18415B583C76185FD8B64
:1014B400F5F783C7D184858BF5D398A2C5B703D735
:1014C4000185E3FAE7D22398F18435B383D7018504
:1014D40089EBB7070340239E07081947238FE708C2
:1014E40061B9B7070340194721BBB7070340A38F6E
:1014F400070883D7C70783C761852398018483D7E7
:101504000185E39B07C6F1B783C7740A93F7F7070E
:10151400A383F40A83C7740AC18B89CF83D5440893
:10152400054593F5F50F4D2A83C7740A93C7470001
:10153400A383F40A83C7740A93F7C70F93E72700BA
:10154400A383F40A15B91DC78947E317F7C283C7F4
:10155400640A93F7F7072383F40A83C7640A93C7DB
:1015640047002383F40A83C7640A93F7C70F2383CE
:10157400F40A19B183C7E40993F7F707238FF40832
:1015840083D7018581E79947A38FF40883C76185D1
:1015940093F70706E39207BE83C77185954613F751
:1015A400F70F6384D70699476319F70603D70185B4
:1015B4009307F0031304000463E6E70003D40185F2
:1015C4003344040883A481852286A6851385419823
:1015D400EFE05FDC83D70185A29423AC9184818FF3
:1015E400B3C707082398F184B7070340239E8708ED
:1015F40003C7E70913474700238FE70803C7E70931
:101604001377C70F13672700D1BD83C7E18437075A
:10161400034093F7F70F3CB385B6B7070340239E07
:10162400070899BE9377070489C7930700049CA40D
:10163400A1B69377270095C789479CA4B824098B42
:1016440011CB03C7D18413672700A386E18483C722
:10165400D1841DB603C7D1841377D70FA386E18441
:1016640021BE9377170091CFA38701842387018438
:10167400A386018423860184A3810400493C854711
:101684007DB798A4D5BCEFE2FFCD2E8415E51306F3
:1016940000049385419C1385418CEFE0BFCFB7379D
:1016A4000240238C874203C7A7431377C70F238DB8
:1016B400E74201456FE05FCD370703409385419CC6
:1016C4006CC32312870A8347670A93F7C70F93E70C
:1016D40027002303F70AF1BFEFE2DFC8AA842E86AE
:1016E40015CD93854194138541A0EFE0BFCAA52A87
:1016F40089472A846302F5021389419C81451306B4
:1017040000041385419CEFE05FCA333480008945AF
:101714002685A3008900853F6FE01FC7B7070C200B
:1017240093854746C9B783A7818337470F001307BB
:101734000724B3D7E7022390F1861307803EB387CB
:10174400E70223AEF1848280B7F700E0D843759BAB
:10175400D8C303A7C1859387070823A407003305CB
:10176400E502114788CB98C398431367170098C3C1
:10177400B7F700E0D843098B75DF938707089843D0
:10178400799B98C38280EFE2FFBD2A841165011121
:1017940085451505B714014002C202C402C602C839
:1017A40002CA02CC02CEEFF0AFB31D46138504800B
:1017B400A545EFE0DFF9930700207C828D473EC406
:1017C4004C00E147138504803EC6EFE05FEA22C87F
:1017D40037440140B70708000C08130504803ECCC9
:1017E40002CA231E0100EFF06FB185451305048082
:1017F400EFF0CFB905616FE03FB9EFE21FB53749AC
:101804000140AE89328481441309098063C5840090
:1018140022856FE0DFB6930500044A85EFF0CFB868
:101824007DD9B3879900838507004A858504B3C5AC
:101834000508EFF0EFB6D9BFAA8703A54181373772
:101844000C20130787E2AA9763EBE7003707102001
:10185400130707806365F70023AAF18082807D5512
:1018640082806FE09FDAEFE25FAE138741A0834A84
:1018740017001823914605451347070863EEE60849
:10188400138941A0B7370A20938747F73347F720D6
:101894001C43828737060C20CA878146130686625A
:1018A400850763EF560783A74186D69723A2F1865F
:1018B40003A7418683A78181636FF704EFE01FD3F9
:1018C40003A50182014AEFE09FCDB7070C20938462
:1018D40087621389876283A78181A183636AFA047B
:1018E400814703A74186B386F40063F6E702982292
:1018F400B306F90085071377F70F98A2DDB7EFE079
:10190400FFCEB7270240DC5737070010F98F99C77D
:10191400896723ACF18001456FE07FA68567D5BF59
:1019240003A741868C33369732970CA385068DBF67
:1019340003A50182A685050A2D3783A741869384D2
:101944000410938707F023A2F18683A7018293876B
:10195400071023A0F18241B703C7818619E7054721
:101964002384E18683A74186A1EFCA870147636E7A
:101974005707014583A7C181D69723AEF18069BF7C
:1019840083A74186BA97A69794A3050703A4418623
:101994003A941374F40F6DF403AA418683A78181EA
:1019A40003A50182130AFA0FB307F0407D8DEFE01F
:1019B4001FBF135A8A00631C8A0023A2018675B7CD
:1019C400B7040C20014793848462FD56C1B703A574
:1019D4000182A6850504713583A7018293840410CE
:1019E4009387071023A0F182F9B703A6C181EC23E2
:1019F40085073A9610226314B60005078DBF054586
:101A040095BF2384018605472381E186B7670008D3
:101A140023A0F18223AEF18003A58181B787070853
:101A2400F1173305A0407D8DEFE07FB7B727024063
:101A3400984B09451317F72898CB984B1367070859
:101A440098CBD9BD3288AA882E87CDEA63FFC50E0C
:101A5400C167636AF618B7070001B337F600B30726
:101A6400F040E19BE1073353F6009716000093869C
:101A7400E65F9A96942213030002B697B306F340E6
:101A8400630BF3003397D500B357F5003318D60032
:101A94005D8FB318D500135608013355C702B346FA
:101AA400080893D708013377C702B385A602420713
:101AB400D98F63FAB700C2971307F5FF63E40701F0
:101AC40063E8B7303A858D8F33D7C702B3C80808A7
:101AD400B3F7C702B386E602C207B3E8F80063FBB4
:101AE400D800C2989307F7FF63E50801791763E309
:101AF400D8003E874205598D8145828063F5D50023
:101B0400814501458280C16763E5F618B707000186
:101B1400B3B7F600B307F040E19BE10733D8F60012
:101B240017170000130787544297182393080002DD
:101B34003E973388E8406392E81863EDB626333560
:101B4400C500134515008145828045C6C167637B86
:101B5400F62413370610134717000E07B356E60092
:101B64009717000093878750B6979C23930600022B
:101B7400BA97B38EF640639DF608B387C540854592
:101B8400935606013346060833D5D70213D7080106
:101B9400B3F7D7023303C502C207D98F63FA6700CC
:101BA400C2971307F5FF63E4070163E067223A85F0
:101BB400B387674033D7D702B3C80808B3F7D7024F
:101BC4003306C702C207B3E8F80063FBC800C29833
:101BD4009307F7FF63E50801791763E3C8003E87BD
:101BE4004205598D82809337061093C717008E07DC
:101BF4009DBD81469717000093874747B6979C235E
:101C0400014793060002BA97B38EF640E387F6F6CF
:101C14003318D60133D3F50093560801335ED3024B
:101C2400B395D501B357F500CD8F3346080813D7C4
:101C34000701B318D5013373D302B305C6034203B6
:101C440033676700637BB70042971305FEFF636A3F
:101C540007176378B716791E42970D8F3355D7024D
:101C6400B3C707083377D7023303A6024207D98FD5
:101C740063FB6700C2971307F5FF63E0071563FE74
:101C840067127915C29793150E01B3876740C98D02
:101C9400E5BD93B7061093C717008E0733D8F60037
:101CA400171700001307873C429718239308000274
:101CB4003E973388E840E382E8E8335EE600B39673
:101CC4000601336EDE00B3D8E500935E0E01B3D790
:101CD400D803B39505013357E5004D8F33430E0800
:101CE4009356070133160601B3F8D803B305F3027C
:101CF400C208B3E6160163FBB600F2969388F7FFB9
:101D040063E3C60D63F1B60CF917F2968D8EB3D565
:101D1400D60333470708B3F6D603B308B302C206A3
:101D2400558F637B170172979386F5FF6369C70923
:101D340063771709F9157297C207C16ECD8F938621
:101D4400FEFFB3F5D70013D30701F18E4182338E22
:101D5400D50233071741B306D30293580E01B38556
:101D6400C502B695C6953303C30263F3D5007693D3
:101D740093D605019A966363D7026305D7003E851F
:101D840081458280C166FD1633F7D5004207337E54
:101D9400DE00331505017297E373E5FE1385F7FF43
:101DA40081458280B70700016377F60293560601E6
:101DB40041477DB38145054582803A85E9B5B685BD
:101DC400A5BF2A8E59BDC68791B77915C297CDB3E1
:101DD4007915C297CDB993568601614751B35D71A8
:101DE40022D406D62A842EDA32DC36DEBAC0BEC24B
:101DF400C2C4C6C603A5418211C51C4D81E72AC6CB
:101E0400A12132450C455418228636CEEF00F00F3E
:101E1400B250225461618280011122CC26CA4AC880
:101E240006CE4EC6AA842E89328401C51C4D91E388
:101E3400212997170000938767376317F402C0407E
:101E44001C4C1CC45E24A18B99C31C4895EFA2852D
:101E54002685492015C97D59F2406244D244B249CD
:101E64004A854249056182809717000093870732AB
:101E74006314F4008044E9B7971700009387072F91
:101E8400E310F4FCC0446DBF1C4808409379F90F7B
:101E94001379F90F1D8D5C486346F500A2852685EC
:101EA400912C55F91C440505FD171CC41C401387CF
:101EB400170018C0238037015C486388A7005E249C
:101EC400858BD9DBA947E319F9F8A28526851D245A
:101ED40041D551B7411122C426C24AC006C683A4C3
:101EE40041822A892E8489C49C4C99E32685A92E93
:101EF400971700009387872B6313F402C04083175E
:101F0400C40013F7870025E713F707010DEB2547F6
:101F14002320E90093E707045EA47D5571A0971779
:101F240000009387A7266314F4008044C9BF971761
:101F340000009387A723E314F4FCC044C9B7918B32
:101F44009DC34C5889C9930744046384F5004A85AA
:101F5400B92B232A04025E242322040093F7B7FD3D
:101F64005EA41C481CC05E2493E787005EA41C4842
:101F740099EB5E241307002093F707286385E70095
:101F8400A2854A8561298317C40013F717001DC36E
:101F94005848232404003307E04018CC184801456E
:101FA40001E713F707083DF7B2402244924402497F
:101FB4004101828013F72700814611E3544814C479
:101FC400F1BF8397C500011122CC26CA06CE4AC8A8
:101FD4004EC613F78700AA842E8479E3D84163455B
:101FE400E000B8416356E008585459C303A90400FB
:101FF40023A004000C5093D7C748A9CB70485E2493
:10200400918B99C75C401D8E5C5899C33C401D8ED2
:102014005C540C50814626858297FD57630CF50469
:102024001C480567232204001CC05E24F98F91C359
:1020340068C84C5823A0240185CD930744046384C5
:10204400F5002685AD21232A04021DA001468546FC
:1020540026850297FD572A86E313F5FA9C40C5D3DB
:1020640075476385E70059476395E70623A0240174
:102074000145B5A098408317C40001CFF546630518
:10208400D700D9466319D7041C48232204001CC076
:102094004DB718482322040093D7C74818C041BF3E
:1020A40083A90501E38609FC03A905008D8B23A000
:1020B400350133093941014791E3D84918C4E3593B
:1020C40020FB1C540C50CA864E8626858297634F8B
:1020D400A0008317C40093E707045EA47D55F24073
:1020E4006244D2444249B24905618280AA993309C3
:1020F400A940F1B79C49411106C622C426C281EB0E
:102104008144B24022442685924441018280AA84BB
:102114002E8401C51C4D91E3052A9717000093876F
:10212400E708631CF402C0408317C400F1DB785055
:10213400058B11E793F7072099E3284C5124268552
:10214400A28541357C50AA84858BC5FF5E2493F714
:102154000720C5FB284CB5246DB79717000093875B
:10216400E7026314F4008044C1B797170000938713
:10217400E7FFE31BF4FAC04445BF411122C406C67D
:102184002A844EA572A523200500232205002324BA
:1021940005002322050623280500232A0500232CF5
:1021A4000500214681451305C505EFE00FA09717EB
:1021B4000000938767835CD0971700009387678537
:1021C4001CD497170000938727895CD497170000C5
:1021D4009387678BB24000D01CD82244410182808F
:1021E40097050000938545F1BDA2411126C29307CE
:1021F40080069384F5FFB384F4024AC02E8922C476
:1022040006C693854407692E2A8401CD2320050040
:1022140023222501310508C4138684068145EFE095
:10222400CF98B240228522449244024941018280DF
:102234001385018771A21385018761A213854187E4
:1022440041A213854187B5AA411122C406C62A8436
:10225400F5371C4C89C72244B2404101DDB79707CA
:102264000000938727F81CD42324040423260404A1
:102274002328040483A7C1826394870085471CCC68
:1022840022853D2048C02285252008C422850D20B2
:1022940048C4484001469145CD3508440546A54506
:1022A400E93D48440946C945C93D85471CCC65B745
:1022B400411126C24AC006C622C42A89953F83A476
:1022C400C1829C4C99E326854137938484048044DD
:1022D400DC40FD1763D607009C40BDC38440C5BFE6
:1022E4000317C40039EBC17785075CC41305840563
:1022F40023220406E92081372146232004002324D5
:1023040004002322040023280400232A0400232C8D
:10231400040081451305C405EFE02F89232A040234
:10232400232C04022324040423260404B24022851B
:10233400224492440249410182801304840651BF1D
:1023440091454A855D3588C02A8449F9ED35B14700
:102354002320F900E1BF797122D44AD04ECE52CC69
:102364005AC85EC606D626D256CA2A892E8A1304AD
:1023740085048149054BFD5B0444832A4400FD1A0E
:1023840063D00A0200406DF8B250225492540259AC
:10239400624AD24A424BB24B4E85F2494561828031
:1023A400DE24637BFB008397E40063877701A685C3
:1023B4004A85029AB3E9A90093848406C9B7828046
:1023C400828082805971A2D42E848395E500A6D29E
:1023D400CAD086D6B284368963D205025E2493F7C6
:1023E40007088DEB13070040B65026542320F9004C
:1023F40098C0065996540145656182803000F12DDC
:10240400E34E05FC3247BD67F98F7977BA9793B7E6
:102414001700C9BF814713070004F9B7DE25797196
:1024240022D406D626D24AD04ECE898B2E8491CF82
:10243400930774041CC01CC885475CC8B25022545E
:1024440092540259F2494561828074003000AA8492
:10245400953FA2492A892685CE85992219E98317B1
:10246400C40013F7072079FBF19B93E727005EA4D0
:10247400C1B7970700009387E7D69CD45E2408C0B1
:1024840008C893E707085EA4B247232A340199CB0E
:102494008315E4002685B52511C55E24F19B93E7D9
:1024A40017005EA45E2433E527014AA441BFD1CDC1
:1024B40083A7C5FF011122CC06CE1384C5FF63D3C5
:1024C40007003E942AC655251387C1871C4332450D
:1024D40081EB2322040000C36244F240056151AD44
:1024E400637DF4001040B306C4006396D7009443A0
:1024F400DC43B29614C05CC0F9BF3E87DC4399C389
:10250400E37DF4FE14433306D700631F86001040B6
:10251400B29614C33306D700E390C7FC9043DC4360
:10252400B29614C35CC34DBF6375C400B1471CC1EC
:1025340065B71040B306C4006396D7009443DC43E8
:10254400B29614C05CC040C341BF828041114AC0EE
:10255400138981878327090022C426C206C6AA8458
:102564002E8489E7814599292320A900A2852685FF
:10257400B1217D59631A25017D54B240228522443C
:102584009244024941018280130435007198E306A4
:1025940085FEB305A44026851521E31025FFE9BF78
:1025A400011126CA93843500F1984AC8A104B147A1
:1025B40006CE22CC4EC62A89B3F4F40A63C40400BE
:1025C40063FDB400B1472320F9000145F2406244A1
:1025D400D2444249B24905618280412B9389C18723
:1025E40083A709003E8431E4A6854A858537FD57D3
:1025F4002A846316F50A03A40900A287C1EB832980
:10260400040081454A85A299552E6394A9081C406B
:102614008D044A859D8CF198B147A104B3F4F40A62
:10262400A6852D37FD576306F5061C40A6971CC0EA
:1026340015A01440858E63C806042D47637DD70218
:1026440004C0330794006396870223A0E9005C402A
:1026540014C35CC34A85312B1305B40093074400AB
:1026640061993307F540E303F5F63A94898F1CC06A
:10267400B1BFD8C3E9BF58406395870023A0E900E0
:10268400D1BFD8C3C1BFA2874040B1BF3E84DC43A1
:10269400B5B7B1472320F9004A85E1293DB704C104
:1026A40055BF1C46FD171CC663DA0700184E63C5E8
:1026B400E700A9476394F5006FF00FF61C422E85DE
:1026C4001387170018C28CA38280011122CC26CA5A
:1026D4004AC84EC652C406CE2A89AE893284B3048F
:1026E400D6007D5A63149400014501A80C204E863F
:1026F4004A85453F0504E31745FFF2406244D2444E
:102704004249B249224A05618280357122CD26CBE5
:102714004AC94EC706CF52C556C35AC1DEDEE2DCF3
:10272400AA892E843289B68409C51C4D99E3EFF039
:10273400BFB197170000938767A76317F40403A436
:1027440049007C50858B99E75E2493F7072099E331
:10275400284CBD315E24A18B99C31C48B9EFA285D6
:102764004E85EFF02FF731C97C50858BA1C37D5581
:10277400FA406A44DA444A49BA492A4A9A4A0A4B0C
:10278400F65B665C0D61828097170000938707A053
:102794006315F40003A489006DB7971700009387AD
:1027A400E79CE310F4FA03A4C90061BF5E2493F725
:1027B4000720D5FF284C31315DBF93070002A304E5
:1027C400F1029307000302D22305F10226C6930BFC
:1027D4005002971A0000938A6A9F294BCA849C204E
:1027E40099C363997709338C2441638D2401E2866C
:1027F4004A86A2854E85D13DFD576306F51892574A
:10280400E2973ED29C2063800718FD571389140079
:1028140002C802CE3ECA02CCA309010482D4834575
:102824000900154656853526C2479304190029E543
:1028340013F7070109C713070002A309E10413F7FB
:10284400870009C71307B002A309E10483460900FE
:102854001307A0026389E602F247CA84814625462B
:10286400982093851400130707FD6372E60685C656
:102874003ECE15A08504A5B733055541B397A728C7
:1028840026893EC869BF324793064700184336C6B7
:10289400634807023ACE98209307E002631CF704CA
:1028A40098309307A002631AF702B247890413878A
:1028B40047009C433AC67D57B3E7E70A3ECA1DA8C2
:1028C4003307E04093E727003ACE3EC8E9B7B38721
:1028D4006703AE848546BA9761B7850402CA814608
:1028E40081472546982093851400130707FD6372DA
:1028F400E606E9F68C200D46171500001305858DB4
:10290400892C11CD971700009387C78C1D8DC24762
:10291400130700043317A700D98F85043EC88C2001
:102924001946171500001305258B13891400230479
:10293400B102052435C99307000095E74247B24721
:102944001377071009CF91073EC69257D2973ED20C
:1029540071B5B3876703AE848546BA9761B79D079F
:10296400E19BA107D5B7780097060000938626D689
:1029740022860C084E8597000000E7000000FD57F2
:102984002A8AE314F5FC7C50858B81EB5E2493F753
:10299400072081E7284CEFF0DFA25E2493F70704B9
:1029A400E39707DC1255E9B3780097060000938695
:1029B40006D222860C084E85F124D1B7411122C4D7
:1029C4002A842E8523A0018806C6EFE0FFE6FD5782
:1029D4006316F50083A7018891C31CC0B24022444A
:1029E40041018280411122C42E848395E50006C6EC
:1029F4003123634905007C48AA977CC8B24022442D
:102A0400410182805E249397C7485EA4C5BFDE253A
:102A1400011122CC26CA4AC84EC606CE93F7071027
:102A2400AA842E843289B68991C78395E5008946A4
:102A34000146DD285E248315E400F2409397C748DD
:102A44005EA46244CE864A86B24942492685D2446F
:102A540005611DA8411122C42E848395E50006C694
:102A6400E1207D575E246319E5009397C7485EA46F
:102A7400B2402244410182809397C72868C85EA46B
:102A8400C5BF8395E5003DA0411122C42A842E854B
:102A9400B285368623A0018806C6EFE01FD6FD570F
:102AA4006316F50083A7018891C31CC0B240224479
:102AB40041018280411122C42A842E8523A00188E9
:102AC40006C69521FD576316F50083A7018891C3B7
:102AD4001CC0B240224441018280411122C42A8494
:102AE4002E85B28523A0018806C6A121FD57631651
:102AF400F50083A7018891C31CC0B2402244410160
:102B04008280411122C42A842E8523A0018806C60E
:102B14003D21FD576316F50083A7018891C31CC0AE
:102B2400B240224441018280411122C42A842E856C
:102B3400B285368623A0018806C60129FD5763168F
:102B4400F50083A7018891C31CC0B240224441010F
:102B5400828093F5F50F2A966314C500014582809F
:102B64001C21E38EB7FE0505C5BF1385C1866FF032
:102B74003F851385C1866FF0DF84797156CA9C49FD
:102B8400BA8A984522D44AD04ECE52CC06D626D202
:102B94005AC85EC6B3E7E70A1CC203C73504AA894C
:102BA4002E843289368A19C385071CC21C4093F7C8
:102BB400070291C78327090089072320F9000440ED
:102BC400998891E8130B9401FD5B5C440327090089
:102BD400998F63CCF40483473404B336F0001C406B
:102BE40093F70702A5EB13063404D2854E85829A27
:102BF400FD576303F5041C4011478144998B639985
:102C0400E7008327090044449D8C8147B3E4F40A18
:102C14001C4418486354F700998FBE940149690411
:102C24007D5B63982405014509A885465A86D285AB
:102C34004E85829A631E75017D55B250225492547A
:102C44000259F249624AD24A424BB24B45618280F0
:102C54008504A5BF3307D40013060003A301C704EA
:102C64000347540493871600A2978906A381E704B7
:102C74009DBF85462286D2854E85829AE30E65FBEA
:102C8400050945B7797122D44AD04ECE52CC06D626
:102C940026D256CA5AC803C88501930780072A89D1
:102CA4002E84B289368A63E207039307200693864B
:102CB400350463E10703630B081C930780051706BB
:102CC40000001306E6516307F81493042404230157
:102CD400040515A89307D8F993F7F70F5546E3664B
:102CE400F6FE1706000013062652B3C7C7209C43FE
:102CF400B29782871C4393842504938647009C43A0
:102D040014C32381F504854765A290411C431375C0
:102D140006089385470029C19C430CC3584063DED1
:102D240007129305D002A301B40418C4635E07021A
:102D3400B307F040170600001306864A2948B684F4
:102D440033F70703FD143297182398A03E87B3D7AF
:102D54000703E37707FF85A09C43137506040CC3A0
:102D640055DD939757605DBF6D9A10C0D1B7904100
:102D74001C43137506089385470001C50CC39C4387
:102D840031A0137606040CC37DDA9E231307F006E4
:102D9400170600001306C644631FE80A2148A3016E
:102DA4000404584018C4E34C07F80C40ED990CC0D7
:102DB400D9F7B68449F7A147631EF8001C40858BF8
:102DC40091CB58401C4863C7E70093070003A38FC7
:102DD400F4FEFD14858E14C85287CE867000A28539
:102DE4004A85613BFD5A6319550D7D55B2502254F5
:102DF40092540259F249624AD24A424B4561828056
:102E04009C4193E707029CC1130880071706000042
:102E14001306463EA30204050C401C4313F80508A0
:102E2400138547006305080008C39C4339A013F8C1
:102E3400050408C3E30B08FE9E2313F7150001C71E
:102E440093E505020CC099C3414891BF184013771C
:102E5400F7FD18C0D5BF294899B717060000130617
:102E6400263829483DBF90411C43CC4913780608B5
:102E7400138547006306080008C39C438CC339A02C
:102E840008C3137606049C4375DA8EA32328040032
:102E9400B68499B71C43D04181459386470014C337
:102EA400844326857D3101C5B30795405CC05C40F1
:102EB4001CC8A30104040DB714482686CE854A8590
:102EC400029AE30455F31C40898B85E74844B247D2
:102ED4003365F50A21BF85465686CE854A85029A12
:102EE400E30565F185045C443247998FE3C5F4FE3C
:102EF400F1BF8144930A94017D5BF5B7411122C46B
:102F04002A842E85B285368623A0018806C6A12090
:102F1400FD576316F50083A7018891C31CC0B24016
:102F24002244410182809307800523A0F1887D55C6
:102F340082809307800523A0F1887D5582809307C2
:102F4400800523A0F188014582809307800523A092
:102F5400F1887D5582809307800523A0F1887D55F3
:102F6400828000005635462053797374656D436F33
:102F74007265436C6B3A25640D0A0000360F0A2013
:102F8400500E0A20840D0A20B40E0A20840D0A2053
:102F9400D80D0A20DC0C0A20840D0A20260E0A20F3
:102FA4003C0E0A20300F0A20E40D0A206E130A207A
:102FB400A6120A2016110A200A130A2016110A2042
:102FC4006E120A2044110A2016110A207C120A20CB
:102FD40092120A2068130A20EC110A20160330000A
:102FE4003100320033003400350036003700380039
:102FF400390000001A03430048003300320048003F
:103004003400310037002000490041005000000026
:103014000E037700630068002E0063006E0000005A
:103024000902200001010080320904000002FFFFB0
:10303400FF0007058202400000070502024000006D
:1030440012010002FFFFFF40861A385501010102F8
:1030540000010000B4170A201E180A2078180A205C
:1030640022190A2036180A2000010202030303036E
:103074000404040404040404050505050505050504
:1030840005050505050505050606060606060606E4
:1030940006060606060606060606060606060606CC
:1030A40006060606060606060707070707070707B4
:1030B400070707070707070707070707070707079C
:1030C400070707070707070707070707070707078C
:1030D400070707070707070707070707070707077C
:1030E4000707070707070707080808080808080864
:1030F400080808080808080808080808080808084C
:10310400080808080808080808080808080808083B
:10311400080808080808080808080808080808082B
:10312400080808080808080808080808080808081B
:10313400080808080808080808080808080808080B
:1031440008080808080808080808080808080808FB
:1031540008080808080808080808080808080808EB
:10316400080808080808080800000000000000001B
:10317400000000000000000000000000000000004B
:10318400000000000000000000000000000000003B
:10319400000000000000000000000000000000002B
:1031A400000000000000000000000000000000001B
:1031B400000000000000000000000000000000000B
:1031C4000000000000000000232D302B2000000030
:1031D400686C4C0065666745464700003031323301
:1031E40034353637383941424344454600000000FF
:1031F4003031323334353637383961626364656669
:1032040000000000F0FAFFFF06FBFFFFC6FAFFFF15
:10321400C6FAFFFFC6FAFFFFC6FAFFFF06FBFFFF71
:10322400C6FAFFFFC6FAFFFFC6FAFFFFC6FAFFFFA2
:1032340062FCFFFF6AFBFFFFFCFBFFFFC6FAFFFF18
:10324400C6FAFFFF90FCFFFFC6FAFFFF6AFBFFFF11
:0C325400C6FAFFFFC6FAFFFF04FCFFFFF4
:1032600097E10A209381019817D10E20130181D98B
:10327000B726024098428D47D98F9CC217D5FFFFD1
:103280001305C5D897D50A209385C5F717D60A2008
:103290001306060563FAC5008322050023A0550026
:1032A00011059105E3EAC5FE98C297D00A20E78090
:0432B00060F50000C5
:1032B400191C1E202326282D32383C40464C505AD7
:1032C40000000000000000000102030406070809D2
:1032D400040607081109130A150B170C190D0E0F14
:1032E400101112131416181A1C1E20222426283B0F
:1032F400191C1E202326282D32383C40464C505A97
:103304000000000000000000010203040607080991
:10331400040607081109130A150B170C190D0E0FD3
:10332400101112131416181A1C1E20222426283BCE
:1033340000000000C8300A20A8300A2088300A2083
:103344000000000000000000000000000000000079
:103354000000000000000000000000000000000069
:103364000000000000000000000000000000000059
:103374000000000000000000000000000000000049
:103384000000000000000000000000000000000039
:103394000001020202040608000000000102030406
:1033A40000010202282E0C2000200000006000080A
:1033B4000060000880030C200403090480030C202F
:0400000310000000E9
:00000001FF
