:020000022000DC
:080000006F60C0110000000058
:100008001705F6DF1305450E9705FEFF938585FF57
:100018001766FEFF1306860263FAC50083220500F1
:1000280023A0550011059105E3EAC5FE1765F6DF23
:10003800130545149765FEFF938545001766FEFF77
:100048001306C6FF63FAC5008322050023A05500E6
:1000580011059105E3EAC5FE1765F6DF130585115D
:1000680097150000938505BA1386018363FAC500C6
:100078008322050023A0550011059105E3EAC5FE7A
:1000880013850183973501009385054D6377B50086
:10009800232005001105E36DB5FEB73237129382B0
:1000A800023E739002BC9D42739012BCBD42739095
:1000B8004280996293828208739002309702FEFF11
:1000C800938242F493E23200739052309702FEFF1B
:0C00D800938202227390123473002030D7
:1000E4000000020000000000DA020A20DC020A20FC
:1000F400000000007E040A20000000000000000050
:100104007E040A207E040A20000000000000000093
:100114007E040A207E040A207E040A2000000000D7
:100124007E040A207E040A207E040A207E040A201B
:1001340000000000000000000000000000000000BB
:1001440000000000000000000000000000000000AB
:100154007E040A20000000000000000000000000EF
:100164007E040A207E040A207E040A207E040A20DB
:100174007E040A207E040A207E040A207E040A20CB
:100184007E040A207E040A207E040A207E040A20BB
:100194007E040A207E040A207E040A207E040A20AB
:1001A4007E040A207E040A207E040A207E040A209B
:1001B4007E040A207E040A207E040A207E040A208B
:1001C400461D0A207E040A207E040A207E040A209A
:1001D4007E040A2000000000E42D0A20062D0A20D7
:1001E4007E040A207E040A207E040A207E040A205B
:1001F4007E040A207E040A207E040A202E190A2086
:100204007E040A207E040A207E040A207E040A203A
:100214007E040A207E040A207E040A207E040A202A
:100224007E040A207E040A207E040A207E040A201A
:100234007E040A207E040A207E040A207E040A200A
:100244007E040A207E040A207E040A207E040A20FA
:100254007E040A20522C0A207E040A207E040A20EE
:100264007E040A207E040A207E040A207E040A20DA
:100274007E040A207E040A207E040A207E040A20CA
:100284007E040A207E040A207E040A207E040A20BA
:100294007E040A207E040A207E040A207E040A20AA
:1002A4007E040A207E040A207E040A200000000046
:1002B4007E040A207E040A207E040A207E040A208A
:1002C4007E040A207E040A207E040A207E040A207A
:1002D4007E040A207E040A20000000007E040A2016
:1002E4007E040A2000000000000000007E040A20B2
:1002F40000000000000000007E040A207E040A20A2
:100304007E040A207E040A207E040A2000000000E5
:100314007E040A207E040A207E040A207E040A2029
:10032400C6160A202A3F0A207E040A207E040A20D8
:100334007E040A20397101436EC619A039714153F4
:100344006AC866CA62CC5ECE19A0397101535AD00C
:1003540056D252D44ED64AD826DA22DC06DE3301EF
:100364006140828241114AC026C222C406C68282EA
:10037400B24D4101024D924C224CB24B4101024B11
:10038400924A224AB2494101024992442244B2406B
:10039400410182802A8309CA8383050023007300F4
:1003A4007D16050385056DFA82802A8311C6230014
:1003B400B3007D16050365FE828001A0B707EFBE7A
:1003C40037E700E0938707083CC701A0EFF29FF9E5
:1003D4001520EF00503837150E00EF00B04183A50B
:1003E400018337650A201305859AEF40601DEF30BD
:1003F400400901A0B7170240D44398472146B18A67
:100404006394C602B7060070758F37060050630305
:10041400C7146360E6021DC7B7479C1CB7060040BB
:10042400938707806307D706B7877D01938707847F
:100434008DA0370600606300C710B7677307938702
:100444000794CDB79047944798479305000A93F6CD
:10045400060E21831377F7037D8A05076392B60896
:10046400B767CD1D9387075033D7E702B7170C2022
:10047400938707C2B2979C239146B387E702630927
:10048400D600856693860654B3D6C600858A91C283
:10049400858323AAF18237160240544237170C2071
:1004A400130707C19182BD8A36971823B7160C200B
:1004B40093860601B3D7E7005842416641830D8B0A
:1004C4003697182333D7E70023ACE182B7F600E070
:1004D40083A606D1F18E91E2BA8723A8F1828280A5
:1004E4009305000E6392B602D45BB7170C20938772
:1004F40007C0C182B6979C23B7867D019386068484
:10050400B387D70285838DB7930700086397F600F6
:10051400B7479C1C9387078081BF9307000C6397A0
:10052400F600B7677307938707943DBFB7877D01CC
:100534009387078415BFD85BB7170C20938707C030
:100544004183BA979C2337877D0113070784B387B8
:10055400E7023DBFB767CD1D938707501DBF01A0BC
:10056400B7760040938606409C4205677917331797
:10057400A700D04133F7E7409C41D18F9045D18FFC
:10058400D045D18F3395A700598D88C28280B77723
:1005940000409387074098433315A02881C5498FAD
:1005A40098C382803375A74088C382804111B7778E
:1005B400004002C6938707403EC6B247A107AA97E8
:1005C4003EC6B2478CC3410182800F00F00FB727AB
:1005D4000240C847058911E5C8474189133515000C
:1005E4000D058280EFF21FD8AA840549F93F6318EC
:1005F400250199E0154529A0C93FFD14CDBFFDD8BB
:1006040061B3EFF23FD6B7270240DC57370700103B
:10061400F98F8DCFF9773379F5003705000AD9378B
:1006240091476314F502B72402409C483705000A39
:1006340093E727009CC823AA24019C4893E7070456
:100644009CC84D379C48F59B9CC83DBBFD77E1B7E2
:10065400EFF2BFCF4111AA893705000A2E8902C6DD
:10066400114A4937631E4503B72402409C483705A5
:10067400000A93E717009CC8B34709082390F900C0
:100684009537631C450189094EC6B24713590901C0
:100694003705000A23902701B1379C48F99B9CC871
:1006A4004101F1B9B7066745B72702409386361270
:1006B4003797EFCDD4C31307B79AD8C3D4D3D8D3BD
:1006C40082809C4503D8050013F7070193F8F700CF
:1006D4001DCB584D93E8180081468D4E414E33167C
:1006E400D0283373C800631C660013931600339636
:1006F4006E003377C740D04133166600518F8506AC
:10070400E39FC6FD58CD1377F80F1DCF18418146DE
:10071400130380023D4E930E8004A1453316D02866
:10072400337FC800631EE6016395670650C91396BC
:100734002600331FCE003396C8003377E741518F2C
:100744008506E39DB6FC18C11307F00F6372070515
:1007540054410146130E8002930E80042143130773
:1007640086003317E028B375E800631FB70063966B
:10077400C70358C913172600BD45B395E500339741
:10078400E800B3F6B640D98E0506E31A66FC54C1F8
:100794008280E39ED7F910C959BFE39DD7FD18C9DC
:1007A400D1BF37080140B707300003260800B376ED
:1007B400F500334705086397F602B70600F1FD1606
:1007C400B377D60003260800F18E2320D80099C5FC
:1007D4004581137505073317A700D98F37070140E3
:1007E4001CC38280B7071000E98F89CF9356050197
:1007F400BD8A8D47B397D700B706000FB377F6408D
:10080400D58FF1B7935755019207B317F700EDB79A
:10081400371701409D479306078063F8B702938713
:1008240085FF93F7F70F631AD506B70601408C4688
:100834008A073D473317F70033F7E54098C69846D3
:10084400B317F600D98F9CC682806308D50293073C
:1008540007C0630AF508631CE51637070140544BCB
:100864008A05BD47B397B700B3F7F6405CCB5C4B42
:10087400B315B600DD8D4CCB82803707014054435D
:100884008A05BD47B397B700B3F7F6405CC35C4332
:10089400B315B600DD8D4CC38280930607C0630494
:1008A400D5026312E510B70601408C4E8A073D4716
:1008B4003317F70033F7E54098CE984EB317F60098
:1008C400D98F9CCE8280B70601408C4A8A073D4767
:1008D4003317F70033F7E54098CA984AB317F60080
:1008E400D98F9CCA82803707014054478A05BD4787
:1008F400B397B700B3F7F6405CC75C47B315B600CF
:10090400DD8D4CC782803727014013070780AE87EF
:100914006318E5043707014054538A05BD47B3976C
:10092400B700B3F7F6405CD35C53B315B600DD8D66
:100934004CD3828037270140130707806312E502F6
:10094400B70601408C568A073D473317F70033F743
:10095400E54098D69856B317F600D98F9CD6828076
:1009640037270140130707C06317E5088A073D4787
:100974003317F7003316F6009D471347F7FF63FB61
:10098400B700B7070140945B758F98DB985B518F74
:1009940098DB8280B7070140D457758FD8D7D857D2
:1009A400518FD8D7828013070740E315E5F8B706BF
:1009B40001408C528A073D473317F70033F7E5406F
:1009C40098D29852B317F600D98F9CD2828013071D
:1009D4000740E31AE5F237070140544F8A05BD4743
:1009E400B397B700B3F7F6405CCF5C4FB315B600CE
:1009F400DD8D4CCF8280828037770140130707401A
:100A04001C437629F99B1CC35C455CCB1C491CCF59
:100A14005E29C207D58F1CC714415C41D58F545140
:100A2400BE06D58F1451BA06D58F1445A206D58FAC
:100A3400544D8606D58F162DC206D58F1CC38280D1
:100A4400B777014093870740984309C51367170098
:100A540098C38280799BEDBFB777014093870740A5
:100A640098430A050D9B98C39843598D88C3828087
:100A7400B777014093870740D84309C51367170028
:100A8400D8C38280799BEDBFB77701409387074035
:100A9400D84381C5498FD8C382803375A740C8C362
:100AA4008280377701401307074054435847AA8789
:100AB4002181798D01C5F58F3335F0008280B777B8
:100AC4000140218193870740C8C78280B71702403D
:100AD400D44398472146B18A6394C602B70600708E
:100AE400758F37060050630EC7146360E6021DC796
:100AF400B7479C1CB7060040938707806307D70657
:100B0400B7877D01938707848DA037060060630B48
:100B1400C710B767730793870794CDB79047944777
:100B240098479305000A93F6060E21831377F7037B
:100B34007D8A0507639DB608B767CD1D9387075067
:100B440033D7E702B7170C20938707C6B2979C23C5
:100B54009146B387E7026309D600856693860654F7
:100B6400B3D6C600858A91C285831CC1371602405C
:100B7400544237170C20130707C59182BD8A369754
:100B8400182393860181B3D7E70058424166418315
:100B94000D8B36971823B7F600E033D7E70058C11A
:100BA40083A606D1F18E91E2BA871CC5371602409E
:100BB4005C4263DD07085C4237479C1C13070780CF
:100BC400AD83FD8B95073357F70258C58280930593
:100BD400000E6392B602D45BB7170C20938707C448
:100BE400C182B6979C23B7867D0193860684B3871A
:100BF400D7028583B1B7930700086397F600B74718
:100C04009C1C938707802DBF9307000C6397F60005
:100C1400B76773079387079425B7B7877D019387D1
:100C2400078439BFD85BB7170C20938707C4418367
:100C3400BA979C2337877D0113070784B387E7029C
:100C440025B7B767CD1D9387075005B75442B7172B
:100C54000C2093878701AD829D8AB6978C235C42D2
:100C6400B7160C2093864601B9838D8BB6979C23C7
:100C74003357B70089BF99C5371702401C4FC98F36
:100C84001CCF8280B7170240984F3375A74088CF96
:100C9400828099C5371702405C4FC98F5CCF828030
:100CA400B7170240D84F3375A740C8CF828099C583
:100CB400371702401C53C98F1CD38280B7170240D8
:100CC40098533375A74088D3828099C5371702405B
:100CD4005C57C98F5CD78280B7170240D8573375E9
:100CE400A740C8D7828099C5371702401C4BC98FCB
:100CF4001CCB8280B7170240984B3375A74088CB32
:100D04008280371702401C4309C5939747291CC3A7
:100D1400828093974749E5BF371702401C4309C5B2
:100D2400939767291CC3828093976749E5BF371758
:100D340002405C4309C5939767295CC382809397FB
:100D44006749E5BF371702405C4309C59397772984
:100D54005CC3828093977749E5BFB7170240985BDD
:100D6400B70600D0FD16758F98DB985B7205598D18
:100D740088DB8280B7170240D85B719BD8DBD85BD5
:100D8400498FD8DB8280B7170240D85B4D9BD8DBF4
:100D9400D85B498FD8DB8280B7170240D85BF976DD
:100DA4009386F60F758FD8DBD85B498FD8DB8280AA
:100DB400B7370140138607C0D6219A21630DC502B7
:100DC400938707406309F502B70700406305F502FE
:100DD400938707406301F502B71700401386078025
:100DE400630BC500938707C06307F50056B51AB5B2
:100DF40085475EA982801E21B221B3C7070893F7F5
:100E0400F7F8D18FF22193F7F7CFD18F1EA156B502
:100E1400B73701401AB5138707C06306E500938707
:100E24000740E317F5FC9C251EB9D9B71E2189C5D7
:100E340093E717001EA18280B3C70708F99BB3C7C5
:100E44000708CDBF5E2501C6CD8F5EA58280B3F5B0
:100E5400B7404EA582801E294A25ED8F33450508EB
:100E640089C76D8D3335A00082800145828093C58A
:100E7400F5FFB3C505080EA982801E21BA21B3C7A8
:100E8400070893F7F7F8D98F9A2593F7F7CFD98FF7
:100E94001EA1DC415CD59E211EB585475EA98280DA
:100EA400EFF24FCC1A29F577FD177D8FFE21962599
:100EB4004111D98F1EA9DE215A252A84D58FB62542
:100EC400AE84D58F8D669386369F758FD98F5EA538
:100ED4005E29DA25B3C7070893F7F7CFD98F5EA940
:100EE4000A85ED36924765459040B335F502814653
:100EF4000A063305F502EF30003393064006B35774
:100F0400D5021306F06313974700B377D50292070F
:100F140093872703637AF60093070701B3C707088B
:100F24001EA441016FF04FC6B3D7D702D98FFDB7C6
:100F34005E2589C59397D7285EA5828079777D172A
:100F4400F98FDDBF93F5F51F4EA182800A216D8DC7
:100F54003335A000828083A7818337470F001307AE
:100F64000724B3D7E7022390F1841307803EB387A5
:100F7400E70223AEF1828280B7F700E0D843759B85
:100F8400D8C303D701849387070823A40700330732
:100F9400A70298CB114798C398431367170098C3C7
:100FA400B7F700E0D843098B75DF938707089843A8
:100FB400799B98C38280B7F700E0D843759BD8C368
:100FC40003A7C1839387070823A407003305E50219
:100FD400114788CB98C398431367170098C3B7F792
:100FE40000E0D843098B75DF938707089843799B02
:100FF40098C38280EFF20FB72A84116501118545E9
:1010040015054139B71401401D4613850480A545D3
:10101400EFF01F80930700207C828D473EC44C0074
:10102400E147138504803EC6EFF0AFE922C8374498
:101034000140B70708000C08130504803ECC02CA1F
:10104400231E0100B13D854513050480D535056196
:101054006FF08FB3EFF26FAF37490140AE8932843E
:1010640081441309098063C5840022856FF02FB180
:10107400930500044A85D93D65DDB38799008385CE
:1010840007004A858504B3C505086D3DE9BFAA87F5
:1010940003A5418137370D2013074755AA9763EB02
:1010A400E70037071020130707806365F70023AABA
:1010B400F18082807D558280EFF2CFAA37170240FB
:1010C4005C43F19B5CC3B7170240D843318B75FF77
:1010D4009847F1769386F60F1317F74998C7984304
:1010E4001317874998C39847019B98C79847598D08
:1010F40088C79847758F98C79847B706000298C75E
:1011040098471377F7F198C798471367070298C76A
:1011140098431317872998C3B71702409843758FCC
:1011240075DF9847B71602401317F72998C7D843B5
:10113400719B13672700D8C32147DC42B18BE39E20
:10114400E7FEEFF02FAB37150E006D3513054006A3
:101154009D356FF06FA3EFF2EFA0DD47AA8463E93A
:10116400B704B7670A20938747A3AE978023B7676E
:101174000A209387C7A1BE958821B7270D2013871E
:10118400070A342720A305479387070A639BE600D1
:1011940021476382E40241476394E40041454D449E
:1011A400A0A3193FA2852685EF00B0146FF0CF9D50
:1011B40041450D44D9B741452544DDB7EFF28F9A37
:1011C40001118545114502C202C402C602C802CA01
:1011D40002CC02CE7D3C854537050020C93C37153D
:1011E4000140C1474C00130505807C8202C6EFF024
:1011F4004FCD0C08014502C802CA02CC02CEEFF062
:101204002FB685450145EFF08FB8930520020145BF
:10121400EFF0CFB905616FF02F97AA8501456FF004
:10122400EFB8EFF22F943971130680028145280834
:10123400EFF0AF9737240D209307040A9C2702C6CA
:1012440002C802CA1304040ACDE393070010372529
:1012540001406C00130505C07C86EFF08FC637078C
:1012640010000D073AD611677D172318E102783074
:1012740085473EDE3AD037A70C201307078A3EDAAB
:101284003AD23EDC37170C207C201307070A3AD4E5
:1012940002CC21476391E706930700083ECE280855
:1012A400EFF08FF51C24114589C705476395E700C6
:1012B4001545EFF06FFAB7E700E0416723A8E710A0
:1012C40009472388E748854513050020EFF0CFFB45
:1012D400230E0420A30E0420230F0420A3040400DF
:1012E400A30F042021616FF02F8A0547E399E7F6E5
:1012F40093070020A9BF2947E393E7FA02CE45B735
:10130400EFF24F8641454D3B293F0545EFF04FF342
:101314000545EFF0EFF56FF02F87EFF2AF84B727B5
:101324000D209387070A238E0720A38E07200145EB
:10133400238F0720A3840700EFF08FF0B7E700E0C6
:10134400416723A8E7180F100000B777014093877F
:1013540007401D47D8C78545094571322945A1393C
:101364008145094549326FF02F82EFE2BFFF4111F9
:1013740085452145EFF0FF91B7270D201384070A17
:1013840023050400A30504002390070AB7140140B1
:10139400E147230604007C8241498D474C001385B4
:1013A40004C03EC44AC623010400232204002314BB
:1013B4000400A3060400EFF0CFB02310042223019D
:1013C4000422938404C0A147DCC823A8240141015A
:1013D4006FE09FFBEFE21FF937240D209307040A07
:1013E400DC271304040A99E33C34C9C7B7270D204A
:1013F40003C70732A30504002306040013070706E6
:101404001377F70FB9469387073263E3E61CB76691
:101414000A209386069C3347D72018430287A823C3
:10142400AC3308A00CB0053BB7270D201307001BF5
:101434002390E772938707722381070021AABE23B2
:1014440013958700A1835D8D334505084AA0F133C8
:10145400B7270D201307101BE1BF08202C20512DA6
:101464008547A30604002301F42205452310042222
:10147400EF2090066FE05FF10145EF20F00539257C
:10148400B71701402301042223100422938707C0C5
:101494004147D8CBA3060400F1BFB7270D2013079B
:1014A400403B2390E772182093870772238107003B
:1014B400B8B31830D8A379A8B7270D201307503B29
:1014C4002390E7725A20938707722381070093566B
:1014D4008700B4B3C5B7BE231307601B7EA0B7272C
:1014E4000D20B9B7BC231307701B1CA4B7270D200C
:1014F40081B7A306040085472301F42223100422A4
:1015040001358DBFA3060400093DB717014023012F
:10151400042223100422938707C04147D8CB99BFE4
:10152400B7270D201307A03B2390E77278209387F9
:10153400077223810700B8B37830ADBFB7270D20F9
:101544001307B02B2390E772182493870772238123
:101554000700B8B3382489476311F70837270D20EB
:10156400B74703401307077223A6E70C13070002CB
:101574002393E70C05472384E70CEDBD37070002EE
:10158400B7270D201307C73B23A0E7729387077281
:1015940005470DB7EFF00F9103A581813784070844
:1015A40071143305A040618DEFF0AF85B765A55A7E
:1015B400938555AA2285EFF0AF89B7270240984B4F
:1015C4001317F72898CB984B1367070898CB5DB58A
:1015D400B7270D201307A01FA1BD38248547E31B9F
:1015E400F7E8B7270D2037070340938707723CC3FA
:1015F400930700022310F70A8347670A93F7C70F7C
:1016040093E727002301F70AB5B5B7270D20138701
:10161400070A342709479387070A6390E60E982F31
:101624005DE7B83F4DC7054798AFB82F058B4DE32D
:10163400944B374703402326D70EB82F3327F72080
:10164400762FB82F13F6F63F3327F720231F070012
:1016540013D7A60041C20507B74503402393C50E1F
:101664001377F70F2384E50EB82F058B3DE7984BCE
:10167400369798CBB82F05071377F70FB8AF0F003D
:10168400F00F0F00F00FB42F3D47639CE6043707BB
:1016940012201307070098CB0F00F00F37E700E084
:1016A4003706004093060718D0C20F100000B70594
:1016B40002008CCA0F100000B43FFD1693F6F60F1B
:1016C400B4BF930707108CCBD0C30F00F00F8280F8
:1016D400D44B85B71306004041B7D84B3697D8CBC7
:1016E40051BFB42F4147E399E6FA37071020130797
:1016F4000700D8CB238D070045B7B8270546937656
:10170400F70FE316C7FC983F79F3B83F69D394BF4A
:10171400B82F058B3DE7944B3707034074C3B82FAC
:10172400370603403327F720762FB82F3327F720C7
:10173400231F07002312D60A0347660A1377C70F2D
:10174400136727002303E60AB82F058B0DEF984B88
:10175400369798CBB82F05071377F70FB8AF0F005C
:10176400F00FB42F3D476394E602370712201307A6
:10177400070098CB0F00F00F37E700E037060001B1
:1017840015B7D44B51BFD84B3697D8CBE1B7B42F4C
:101794004147E391E6FE3707102013070700D8CB33
:1017A400238D0700C1BF13050020EFF08FAF05CDD7
:1017B400B777014093870740D847418B1DC737A7A8
:1017C4000C201307078AD8CB37270D201307070AE5
:1017D4008347E72113050020850793F7F70F230FAD
:1017E400F720EFF0CFAD7300203037170C2013072C
:1017F400070A98CFD1BFB7270D201387070A3427CC
:1018040009479387070A6399E60803C7C7213DEF91
:1018140003C7E72125CF0547238EE72003C7F72118
:10182400058B35E737A70C201307078AB746034013
:1018340023A6E61037470340930600402313D7102E
:10184400C1462304D71003C7F72105071377F70F01
:10185400A38FE7200F00F00F37E700E037060040C2
:1018640093060718D0C20F100000C1658CCA0F1070
:10187400000083C6E721FD1693F6F60F238FD720C9
:10188400930707108CCBD0C30F00F00F828037175B
:101894000C201307070A59BFB82705469376F70F9C
:1018A400E316C7FE03C7D72175F303C7E72179DF22
:1018B400A38ED72003C7F721058B39E337A70C2064
:1018C4001307078AB7060340B8C6B7060340116773
:1018D4002394E60A03C7A60A1377C70F13672700E2
:1018E4002385E60A03C7F72105071377F70FA38FAC
:1018F400E7200F00F00F37E700E0370600018DB74F
:1019040037170C201307070A75BFEFE2BFA5B727E7
:101914000D201387070A343F3D471384070A637871
:10192400D70037650A201305C59FEF20505D034794
:10193400E421854763F8E70037650A20130585A08D
:10194400EF20F05B6FE05FA4B7270240DC57370756
:101954000010F98F89C7896723ACF180828085677D
:10196400E5BFB787070803A7C7FFB767A55A9387DB
:1019740057AA6315F702EFE2FF9E37650A201305A5
:1019840045A1EF20D0572945EFF0EFE2B707EFBEAE
:1019940037E700E0938707083CC701A08280EFE2A5
:1019A4007F9C4111AA842E841315B028854502C258
:1019B40002C423160100EFF0CFAD6082373401403A
:1019C4004C00130504C06484231501002313010093
:1019D40023060100EFF0CFBD130504C08545EFF0E9
:1019E4000FC9B7E700E0A38307441307000823A443
:1019F400E7100546130504C08545EFF0AFC48545DF
:101A0400130504C0EFF08FC241016FE0FF97373533
:101A140001408545130505C0EFF0EFC38547631A00
:101A2400F502B7270D209387070A03C7272215C39A
:101A340003D707220507334707082390E72203D774
:101A44000722B7170140938707C0058B01CF414791
:101A540098CB373501408545130505C0EFF02FC1FC
:101A6400730020304147D8CBEDB7EFE2BF8F3D651F
:101A74009305F018130535421D3737350140854568
:101A8400130505C0EFF08FBA6FE01F9037071220DF
:101A940013070700B7270D209387070A935687007B
:101AA400238C070098AB94BB935607016183A38CE6
:101AB4000700B8BB37071020238D07001307070062
:101AC400A38D0700B4AB37250D2093568700D8AB00
:101AD400D4BB238E0700935607011306F00F6183CE
:101AE40081451305E50BF4ABF8BBA38E07006FE04B
:101AF400DF8BEFE23F8741112A8401452EC6EF2098
:101B0400A01D6937B246130704FF133717000546B3
:101B140089450145EF10901EEF20C025B70612201D
:101B2400014793860600214681450145EF20A00523
:101B3400B7061020014793860600214681450545D6
:101B4400EF20600441016FE03F8421C9EFE29F81EF
:101B540037240D209304040ADC2CCC2C33470508CD
:101B6400B3C797202183E8AF01460145F8BFEF20B2
:101B7400205EDC2C1D47850793F7F70FDCACD42CD3
:101B84009307040A6374D700238E0700B83F050740
:101B94001377F70FB8BF6FE02FFF828031C9EFE2F0
:101BA4006FFC37240D209304040ADC3CCC3C3347FF
:101BB4000508B3C7972021832380A7020146054562
:101BC400A380E702EF20C058DC3C1D47850793F74C
:101BD400F70FDCBCD43C9307040A6374D700A38ECC
:101BE4000700B83F05071377F70FB8BF6FE0CFF9C9
:101BF4008280828082808280828082808280EFE202
:101C04006FF6B71702409C4737070070F98F370704
:101C140000406388E7020145EFF0AF8E0145EFF025
:101C24006F950145EFF02F960145EFF0EF960545CE
:101C3400EFF02F8DB7160240370720009C42F98F32
:101C4400F5DF0545EFF00F9085451315B028EFF04B
:101C54008F826FE06FF383C7818593F7F707238C37
:101C6400F18483D6C184130700106393E602B70797
:101C74000340D8331377070FD8B3D833136717004B
:101C8400D8B3370703405C3393E707085CB382801B
:101C940083D6C18413070020639CE600B707034082
:101CA400D8331377070FD8B3D83313672700C9BFC6
:101CB40083D6C18413070030639CE600B707034052
:101CC400D8331377070FD8B3D833136787004DBFC2
:101CD40003D7C18493070040E315F7FAB70703401D
:101CE400D8331377070FD8B337170C20130707C857
:101CF400F8C7130750032396E70A09472387E70A1F
:101D0400D83313674700ADBFB70703403D479AABCD
:101D1400BAAB13070004F8CF13070020B8D3F8D3E5
:101D2400B8D737270D201307472C98D337270D2012
:101D340013070732D8D3239E0708238F07080947C0
:101D4400A38FE708A381E70AA383E70AA385E70A29
:101D54002390070ADAAB98BF98AF2381070A23922E
:101D6400070ADA2B13674700DAAB983F136747007B
:101D740098BF982F1367470098AF2383070A2394CB
:101D8400070ADA2B13678700DAAB983F13678700DB
:101D940098BF982F1367870098AF2385070A82801E
:101DA400EFE24FDC01C5A13D6FE00FDE8145131565
:101DB400B028EFE05FEC0145EFE0DFF8B717024031
:101DC4009C4737070070F98F37070040E38EE7FC24
:101DD4000145EFE01FF3C9BFEFE2CFD81DC50535BC
:101DE40037040340A5471CA09307F0053CA0293FF6
:101DF40085471CB0930780FB1CA037070001B7E799
:101E040000E023A2E7106FE02FD8B70703400D4787
:101E140098A3B7E700E03707000123A2E7180F10E3
:101E24000000BD3FCDB7011126CC22CE4ACA4EC810
:101E340052C656C45AC2B70403409424983493F744
:101E4400F60FC18AE38E06081377F70F937607011E
:101E540093777700639E066A8D466380D768118BFB
:101E640019EFA1CF0547638CE7627244E2445249FB
:101E7400C249324AA24A124B056173002030154709
:101E8400E395E7FE83C7340B93F7F707A389F40AB6
:101E940083C7340BC18B89CB83D7040983C7340B25
:101EA40093C74700A389F40A83C7340B93F7C70F7A
:101EB40093E72700A389F40A4DBF83C7F40993F776
:101EC400F707A38FF40883C7F409A18B6389075A22
:101ED400B72A0D2013874A2C1C2336232388F18428
:101EE4001C33A388F1847E235A232395F1842397FA
:101EF400D1842396E18403CA018593864A2C137AFC
:101F04000A0663150A2A83C511852D4513F7F50FB3
:101F1400636EB528B7650A209385C5A43347B720F7
:101F24001843028703D7E184994621837D171377E9
:101F3400F70F63EDE610B7660A209386C6A733470A
:101F4400D72018430287B7670A209387C7CB842317
:101F540023AAF18435A8B7070340B82713174760AD
:101F64006358070A05472382E1841307002023935B
:101F7400E18403C7418485476311F70AB7670A20E0
:101F8400938707C8A433B82323AAF184A204D98C65
:101F940083D7A18463F4F4002395918403D7A184A7
:101FA4009307F0039304000463E6E70083D4A18459
:101FB400B3C4040803AB4185268613854A2CDA850D
:101FC400EFE04FBD269B23AA61859307F00F630FB3
:101FD400FA1C83C701859397476063D3074803D7E7
:101FE400A1849307000463E6E70083D7A184B3C701
:101FF400070803D7A1841D8F334707082395E1847D
:1020040037070340231EF7089947230FF708B1BD8C
:10201400238201841307000499BFB7670A209387BA
:1020240047C48DB783D7E184094793F7F70F6388D3
:10203400E702636AF70099EF93870182842323AA56
:10204400F184014AB1B70D476380E7028144130A62
:10205400F00F3DBFB7670A20938747BBCDBDB76775
:102064000A209387C7B8E5B5B7670A209387C7B432
:10207400F9BDB7670A20938787C3D1BD83C641845E
:102084000547639DE602B7670A20938747C4A433D4
:10209400B823B7650A20A204D98C37150C201386FF
:1020A400E4FF938565C41305A5CBEFE0AFAEB71786
:1020B4000C20938787CB23AAF184D9BD83C741849D
:1020C40013FAF70FC1F7B7670A20938707C8A43339
:1020D400B823B7650A20A204D98C37150C201386BF
:1020E400E4FF938525C8130565CFEFE0AFAAB717C2
:1020F4000C20938747CFC1B783D7E18493F7F70FB9
:102104002384F184F9B583C791849CA203D7A18465
:102114008547E3F0E7EC2395F18465BD83D7E1843B
:10212400914693F7F70FA384F18405472381E18453
:10213400A38DD184B7270D209387070AB8A7B717B3
:102144000140938707C04147D8CB61B503C70185D8
:102154007D8B19EF83D7E184054793F7F70F6397D6
:10216400E70483C7318493F7E70FA381F18495B51E
:1021740003C7018589467D8B631AD70283D7E1841F
:1021840093F7F70F85E783D7C1849306100893F775
:10219400F70F6387D70463E3F6028D466387D7049A
:1021A4009546638ED70485466387D702B7070340F5
:1021B4001547238FE708A38FE70845B9130740089D
:1021C400638AE70213076008E392E7FEB707034058
:1021D400238B070AFDBBB7070340A381E70AD5BBDE
:1021E400B70703402381070AEDB3B7070340A3856C
:1021F400E70AC5B3B70703402387070AD9BBB70764
:102204000340A389E70AF1B303C701857D8B41EB42
:1022140003D7E18485461377F70F631CD70283C77E
:1022240041846399E700B7670A2083C777C893F7A7
:10223400070299EB83C74184B5FBB7670A2083C7BC
:10224400B7C493F70702BDD383C7318493E717005C
:1022540029BF83D7E184094793F7F70FE398E7F49D
:1022640003D7C184930700106304F70203D7C18422
:1022740093070020630EF70003D7C184930700304F
:102284006308F70003D7C18493070040E313F7D42E
:1022940083C7818593E70708238CF1841DBB03C79B
:1022A400018589467D8BE316D7D283D7E18493F7E2
:1022B400F70FE39007D283D7C1841307100893F76D
:1022C400F70F638BE7046366F7020D476381E70644
:1022D40015476384E7080547E39AE7EC37070340AB
:1022E4008347370A93F7C70F93E71700A301F70A49
:1022F400CDB1130740086387E70413076008E39729
:10230400E7EA370703408347670B93F7C70F93E761
:102314001700230BF70A75B9370703408347270AC9
:1023240093F7C70F93E717002301F70A5DB1370747
:1023340003408347B70A93F7C70F93E71700A30532
:10234400F70A41B9370703408347E70A93F7C70FF2
:1023540093E717002307F70AADB93707034083470C
:10236400370B93F7C70F93E71700A309F70A95B143
:102374002380060061BB83C7018523920A2C094789
:10238400FD8B639EE70A03D7C184130610081377F5
:10239400F70F6305C7066363E6020D46630DC706C0
:1023A40015466304C70885476302F70403D7A1846D
:1023B4008947E3FDE7DE2395F184CDBB130640088E
:1023C4006300C706130660086306C70613062008E1
:1023D400E31EC7FC370703400347670A0D8B054616
:1023E4006313C70098A203D7A18425B3B70703409A
:1023F40083C7370A8D8B6393E7009CA2B70703401A
:1024040083C7270A05478D8B6393E7009CA203D7F4
:10241400A1848947FDB9370703400347B70A7DBF45
:10242400370703400347E70A55BF3707034003470D
:10243400370B6DB7370703400347670B45B783C7AF
:102444000185FD8B81CB83D7A184E374F7B82395F1
:10245400E18441B683C73184858BF5D798A2E5B76B
:1024640083D7A18489EBB7070340239E0708194744
:10247400238FE708DDBAB707034019472DBBA38FA5
:10248400040883D7C40783C7018593F7070699C354
:102494002395018483D7A184E399079CE9B703C7F3
:1024A400340A1377F707A381E40A03C7340A418B7C
:1024B40001CF37270D201307070A5CA783C7340A07
:1024C40093C74700A381F40A83C7340A93F7C70F5D
:1024D40093E72700A381F40A49BA83C7B40A93F7A0
:1024E400F707A385F40A83C7B40AC18B89CB83D7C2
:1024F400840883C7B40A93C74700A385F40A83C733
:10250400B40A93F7C70F93E72700A385F40AB1BA77
:102514001947E36CF79437670A20130787A9B3C7F1
:10252400E7209C438287B707034003C7E709137773
:10253400F707238FE70803D7A18401E71947A38F7F
:10254400E70883C7018593F70706ADEF83C71185B5
:10255400954613F7F70F6380D70899476315F70873
:1025640003D7A1849307F0031304000463E6E70090
:1025740003D4A1843344040803A9418537250D20DD
:102584002286CA851305452CEFD0DFE083D7A184CA
:10259400229923AA2185818FB3C707082395F18443
:1025A400B7070340239E870803C7E709134747007B
:1025B400238FE70803C7E7091377C70F13672700BB
:1025C400238FE70883C7818593974760E3DF0788F4
:1025D400EFF06FE859B883C781843707034093F756
:1025E400F70F3CB3C5B7B7070340239E0708D9BF0D
:1025F400B707034003C7270A1377C70F2381E70AE6
:1026040003C7270A1377F7072381E70A6FF0FF85CB
:10261400B7270D209387070AA38C0700B707034049
:1026240003C7670A1377C70F2383E70A03C7670A39
:102634001377F7072383E70A6FF03F83B7270D204B
:102644009387070AA38E0720B707034003C7A70A87
:102654001377C70F2385E70A03C7A70A1377F7077A
:102664002385E70A6FF07F80B707034003C7E70AB3
:102674001377F7072387E70A03C7E70A1377C70F18
:102684002387E70A03C7E70A134747002387E70AB4
:1026940003C7B70A1377C70F13672700A385E70A91
:1026A4006FF0AFFCB707034003C7670B1377F70757
:1026B400238BE70A03C7670B1377C70F238BE70A3C
:1026C40003C7670B13474700238BE70A03C7370B7E
:1026D4001377C70F13672700A389E70A6FF0EFF892
:1026E40013F7070411C7930700049CA46FF0EFF7D6
:1026F40013F7270005CB89479CA4B824098B19CB71
:1027040003C7318413672700A381E18483C731841D
:102714006FF0AFF503C731841377D70FA381E1843A
:102724006FF0AFF413F7170069D3A38401842384F3
:102734000184A381018423810184A3810400EFF037
:10274400AFDC054798A483C6B1856387E60083C6DA
:10275400B1851147639BE6F00947A38DE184B7E790
:1027640000E03707004023A2E7103707008023A2C8
:10277400E7100545D12A0545C5216FF00FEF37470E
:102784000140231207C2F9562318D7C03706002088
:10279400B7E600E023A4C6108356C7C093E616002C
:1027A4002316D7C0835707C093E717002310F7C039
:1027B4008280371702401C43B7160240939767295B
:1027C4001CC3370780009C42F98FF5DF8280EFD26B
:1027D4007FB981450565EFE00FCA0145EFE08FD66B
:1027E4000145EFE0CFD4B71702409C47370700708C
:1027F400F98F6385E7000145EFE00FD26FD0DFB8B2
:10280400EFD25FB60DC1753785450565EFE0AFC6FC
:102814000545EFE0CFD10545EFE0CFD20545EFE028
:10282400AFCF6FD07FB66537EDBFB7470340B85B16
:1028340013672700B8DBB85B759BB8DB8280EFD2E7
:102844007FB2E537B747034039472390E708239120
:10285400E70823A20708B7360D2023A40708138727
:102864000708938606B254C714CBB7260D20938667
:10287400063274CFC146238CD70CB7260D2093861D
:10288400067274C7130700402393E70C6FD0DFAFC1
:10289400EFD25FAD0DC1B7470340B85B1367470084
:1028A400B8DB0547F8DB3707070013071702B8DB67
:1028B40079376FD07FAD3744034091473CD81C40F3
:1028C400B704008013878400D98F1CC01305400609
:1028D400EFE08FEA3C58DD14ED9B3CD81C40E58FBB
:1028E4001CC0F535F9B7EFD2FFA7011185453705AF
:1028F400400002C202C402C6EFE0AFB90808EFE02C
:10290400EF9C8567938777383EC4D24709671307DE
:102914000771B3D7E702374401404C00130504C0E4
:102924002316010023130100FD177C82EFE0EFD48E
:102934008545130504C0EFE08FD3B7E700E0A38E0D
:10294400074405616FD05FA411C115BDB7E700E06E
:102954003707002023A4E7180F1000003747014071
:102964008357C7C0B3C70708F99BB3C70708231623
:10297400F7C0835707C0B3C70708F99BB3C7070855
:102984002310F7C08280EFD2FF9D1C4958452A844A
:10299400635A07100567930607F0F58FB7060080A2
:1029A40054C5930600506398D700B7270D2023928F
:1029B40007306FD07F9D9316B028639AD70203C760
:1029C400918565DB13054006A38C0184EFE0CFDA23
:1029D400B7470340376792009386871F1307877CA6
:1029E40098C29387C71F054798C39C43D9B79306DA
:1029F40000406394D7045C41BD9B5CC103C7B185AF
:102A040011E70547A38DE1849D3B65B783C6B18576
:102A140009476399E6000D470145A38DE184EFF072
:102A2400AFBBDDB783C6B1851147E394E6F8A38D48
:102A340001840545EFF04FBAADBF930600306392B1
:102A4400D7028546A38CD18437679200B7470340E9
:102A54001386871F1307875C18C29387C71F94C305
:102A640069B793060010E38ED7FC93060020E38A2F
:102A7400D7FC13070790639FE700B7270D20054590
:102A8400239207303135238E01845C4093970749A4
:102A94005CC005B713070060E39DE7F00547A38D0D
:102AA400E18441BF9377074081CB930700405CC525
:102AB400238E01841C49F5BDB7078000B376F70067
:102AC40091CA5CC55C4193E707015CC15C4193E733
:102AD40007087DBFB7074000B376F7008DC25CC519
:102AE400930700287CD11C41858B99C7C167910746
:102AF4003CD42326040675BDB7070200CDBFB70733
:102B04002000B376F700E1C25CC53C4D144113F7D5
:102B1400071E858A85C6930700086318F700930784
:102B2400002A7CD123240506E9B79307000CE3129D
:102B3400F7E87C499397E7297CC9A5BD9306000A69
:102B44006314D7029307002C7CD123240506232683
:102B540005067C4911479397E7297CC90145A38D54
:102B6400E184DD330145F9B5930600046317D7000A
:102B7400A58393F7F70F5CBD2DBD93070002E31AFD
:102B8400F7E23C4DB7260D2093F7074085C3B747BE
:102B9400034098431317072998C398431317172919
:102BA40098C3930710102392F63021B5B74703401A
:102BB40098431317074998C398431317174998C3A1
:102BC40023920630FDB389677D8FE30407DE5CC57D
:102BD4001C49898BE38F07DC0545238E01844D391D
:102BE4005C4093E707015CC00100010001000100A3
:102BF4005C40BD9B71BDBC596205A207A183BCD9D1
:102C0400BC595D8DA8D98280B747034037878300BC
:102C14009386871F130727C198C29387C71F054749
:102C240098C3904337868D001306A69A90C298C322
:102C34009043374695001306064390C298C39043C9
:102C440037069300410690C298C39C43374705B0AA
:102C5400B7C7035098CF8280EFD2CFF051C5054556
:102C6400EFF01FBAB74703401307803498C34947AE
:102C7400D8C3378720001307073498C303D7070541
:102C8400136707202398E70498431367270098C322
:102C94003727E0801307074098C70947D8C31307AD
:102CA4008007BAB7130720032384E70223860702A9
:102CB40023880702B85B13674700B8DB0547F8DBD6
:102CC4003707070013071702B8DB3D3FEFF03FB7A4
:102CD400B7E700E03707004023A2E710370700807A
:102CE40023A2E7106FD04FEAB7E700E0B7040080F3
:102CF40023A297180F1000003707004023A2E718FB
:102D04000F1000003744034091473CD81C40138700
:102D1400840013054006D98F1CC0EFE0EFA53C5892
:102D2400DD14ED9B3CD81C40E58F1CC0EFF03FAA9E
:102D340055BF411126C4B74401408545138504C0DD
:102D440022C6EFE04F9185476311F5062A84854535
:102D5400138504C0EFE0AF9183C7B185639C8700FE
:102D640083C7A1858946850793F7F70F63E4F604C3
:102D7400238DF18403C7B1858D476318F702B7E744
:102D840000E03707004023A2E7180F1000003707C0
:102D9400008023A2E7180F1000000145753D05458A
:102DA400EFF08F830145EFF03FBA3244A244410172
:102DB40073002030238D0184B7E700E0370700401B
:102DC40023A2E7180F1000003707008023A2E7189A
:102DD4000F100000014549350545EFE0FFFF0145AF
:102DE400EFF09FB641BF37450340EFF0DFB9730002
:102DF40020309307F5FF13154560635F050093F7D3
:102E0400F707374703401307070C9607BA971307CA
:102E1400000698B301458280374703401307070D26
:102E24009607BA9798331367070698B3414798A74C
:102E3400D5B72A871375050715E99307F7FF131705
:102E44004760635F070093F7F70737470340960728
:102E54001307070CBA9798331367070898B382804F
:102E64003747034096071307070DEDB71305F00F17
:102E740082802A871375050739E19377F707B1C371
:102E84009307F7FF131747606355070293F7F70794
:102E94003747034096071307070CBA979C33939759
:102EA400476063D00702B7370D2005472380E7B298
:102EB40082803747034096071307070DF9BF1305B0
:102EC400F00F8280B7470340F45B011122CE26CC79
:102ED4004ACA4EC852C656C413F76600094663115F
:102EE400C74037350D20930605B29C22A383F18693
:102EF4009C32B2222383F186FE22D62237270D206C
:102F04002390F1862392C1862391D18603C97186C9
:102F140093054730238105002383050013790906AF
:102F240013074730130805B26319090283C8618681
:102F34002D4393F6F80F636A1301B7650A2093854E
:102F440045ABB3C6B620944282861307000363855B
:102F5400E61213071003638CE61437074000B747E3
:102F6400034023A2E7083707C00023A4E7080DAEF7
:102F740003D74186B94621837D171377F70F63E69C
:102F8400E60AB7660A20938646AE3347D72018432D
:102F94000287B7670A20938747C223A4F1869C233C
:102FA40025A8B7670A20938747BCB82323A4F186D2
:102FB400BC33A207D98F0DA083D74186094793F765
:102FC400F70F638DE706636BF704A5E79387018228
:102FD40023A4F1869C23014903D7018663F4E70007
:102FE4002390F18603D701869307F01F130A00206C
:102FF40063E6E70003DA0186334A0A0883AA818676
:103004005286130505B2D685D29AEFD0AFB823A461
:1030140051879307F00FE302F9F4B9A80D476384CD
:10302400E7021307E00E6385E70281471309F00FF7
:1030340065B7B7670A20938747BB85B7B7670A2088
:10304400938747B699BFB7670A209387C7B4B1B7C8
:10305400B7670A20938787B389B7B7670A2093872E
:1030640087C325BFB7670A20938707B23DBF83D7BD
:103074004186854634A33CB383C7718693974760E2
:1030840063DD072283D70186639F071CB74703408C
:103094003707A000D9BD83C7E1852300F80003D713
:1030A40001868547E3FAE7FC2390F186F1B783D7DD
:1030B40041860547F8A1FCB1C1B703D64186137612
:1030C400F60F238FC18403C6E18505CA37660A203B
:1030D400034696BC83C5E1856301B602238FC18490
:1030E40083C6E18583D7418693F7F70FE387F6E636
:1030F40023000700A30007008DB503C5E18537262B
:103104000D201306060A05E9238E01842305060013
:1031140037160140130606C0C1450CCA83C6E185B3
:1031240083D7418693F7F70FE388F6F4230007006B
:10313400A300070091B70545238EA18489452CA6D9
:1031440037160140130606C0C1454CCAC1BF03C7A8
:1031540071867D8B21E303D7418685461377F70F6C
:103164006319D70083C7D18593F7E70FA38EF18442
:1031740021B703D74186930600031377F70FE30DB6
:10318400D7EE83D741861307100393F7F70FE3961F
:10319400E7DCDDB503C7718689467D8BE31FD7DA8B
:1031A40083D7418693F7F70FE39907DA03D521868E
:1031B4001375F50FEFF0FFC3C1B503C771867D8B9F
:1031C40011EF03D74186930600031377F70FE31A31
:1031D400D7FA83C7C185E39107EA41B303C7718670
:1031E40089467D8BE31AD7E883D7418693F7F70F97
:1031F400E39407E803D521861375F50FEFF07FC339
:10320400A5BD2300080061BD83C47186231005B2E7
:103214008946FD886390D40203D521861375F50F82
:10322400EFF03FC583D701862A89E3F4F4DE2390C7
:103234009186C5B383C77186FD8B81CB83D7018605
:10324400E3FCF6E22390D18605BD03C6D1851C3389
:1032540018238E070A07D98F137716000607D98F0C
:103264002300F800E1BF03D701869307002063E63B
:10327400E70083D70186B3C7070803D701861D8FEC
:10328400334707082390E18637470340939757292C
:103294002322F70883274708939777292322F708DF
:1032A400B74703400947F8DB7244E2445249C24934
:1032B400324AA24A05617300203083D70186E3971E
:1032C40007DCB74703409387070837072000D8C3B4
:1032D400D84313177729D8C33707A00098C7C9B7AD
:1032E40013F746001DCF114737240D20F8DB1304D4
:1032F4004430382019CF2830B7450340EFF0BF8F52
:1033040023010400B747034023A2070823A40708A6
:1033140061BF782065DB78302390E7042303040041
:10332400D5B713F7160049D3856513D78600ED8EFC
:103334001D8BF5C26304C70C636FE6004DEB03D726
:10334400018615EB3707200023A2E7083707A00002
:1033540023A4E70891BF8D46E318D7F403C7571099
:1033640013670704A382E710B7270D209387070A82
:10337400238E072015BF83C6618619476394E6062A
:1033840003D701869307F01F1304002063E6E700C8
:1033940003D401863344040803A9818637350D20FC
:1033A4002286CA85130505B2EFC0DFFE83D70186E6
:1033B4003747034013070708818FB3C707082390D3
:1033C400F1865C43229923A42187C183FD8B850761
:1033D400C207C18F939757295CC35C43939777299E
:1033E4005CC3D9B53707200023A2E70875BD03C71E
:1033F400570C13670704A382E70C7DB503C7570E68
:1034040013670704A382E70EB7270D209387070AE3
:10341400238C070051BD1DDB8546E317D7E8B7268B
:103424000D209386060AB8B637270D2013070732F6
:1034340023AEE70C4147238CE70C03C7570D1367F2
:103444000704A38AE70C8DB5EFC2DFF18545370584
:103454000010EFD0DF85B77700409843F976938664
:10346400F63F1367072098C39843758F98C3984312
:10347400856693860640558F98C3EFD03FD46FC0BE
:10348400BFF0EFC23FEE85450545EFD09F8037057D
:103494003000854513050540EFD0AFB085453705AD
:1034A4000080EFD0DF80B787004093870740D85370
:1034B40013671700D8D3EFD05FEBEFE00FDB1305F2
:1034C4004006EFD05FAF4937EFE00FC885451305DD
:1034D4002008EFD00FFC0145EFD03F88EFF0AFC0DC
:1034E4000545EFF06FF7EFD0FFEEEFE00F92EFE05E
:1034F4008FB0EFE08FC1EFE0CFC6F5B7EFC21FE4A6
:10350400094B5D716366AB62AA8A2E891305100AA2
:10351400636CBB2A8D47B28963E8C72A3A841307D0
:10352400F003368A1305800A6360D72A1305900ACC
:1035340063EC8728B7340D201306400381451385B7
:103544000452EFC09FE6938B045291472389FB02F8
:10355400854537050400A3888B02EFD0CFF185455C
:103564001305D00FEFD0EFF283C71B03B7550A2022
:103574009384045213848579B1EF31469385857918
:103584002818EFC03FE19305C4003146C800EFC0DE
:103594007FE0371501402C1813050540EFD06F92DA
:1035A40037250140CC00130505C0EFD08F91894722
:1035B400238854036395FA386390091231469305BE
:1035C4000409C800EFC01FDD37250140CC001305F6
:1035D40005C039AA03C714038547631AF7043146A3
:1035E400930584010810EFC0FFDA314693054402C5
:1035F4006810EFC03FDA3146930504032818EFC082
:103604007FD931469305C403C800EFC0BFD8371B28
:1036140001400C1013050B80EFD0AF8A6C103715E6
:103624000140EFD00F8A2C1813050B4085BF83C7C8
:103634001403B7550A20B75B0A2031469385057EEB
:10364400639567030810EFC0FFD431469385CB7EA2
:103654006810EFC03FD43146930504062818EFC024
:103664007FD331469305C40645B74808EFC09FD2BF
:1036740031469385CB7E0810EFC0DFD131469305E8
:1036840084076810EFC01FD131469305C400281881
:10369400EFC05FD0314693054408C800EFC09FCF08
:1036A400371B014013050B804C08EFD08F810C10A1
:1036B40037150140EFD0EF8013050B406C10EFD0AD
:1036C4004F80372B01402C1813050B80EFC07FFF70
:1036D400CC0013050BC0D1BD854731466399F90E63
:1036E4009305C409C800EFC0FFCACC0037150140D8
:1036F400EFC03FFD6318091031469305040C4808D8
:10370400EFC05FC931469305C40C0810EFC09FC8D1
:1037140031469305840D6810EFC0DFC73146930529
:10372400440E2818EFC01FC7B71A014013850AC0FA
:103734004C08EFC01FF913850AC00C10EFC07FF8C6
:10374400B72A01406C1013850A80EFC09FF72C182C
:1037540013850A80EFC0FFF603C724038547631867
:10376400F70831469305040FC800EFC0BFC2CC0070
:1037740013850A80EFC0FFF4B7170240985B220953
:103784009A09137707FC98DB985B33693901014583
:10379400336AEA0023A84703B70701409843137725
:1037A400F7C398C398433369E90023A027019167BD
:1037B400DCD09CD4DCD485472380F402A3800402AB
:1037C4002381F402A381F40261616FC0BFBA6395DF
:1037D40059019305840AF5B39305440BC800EFC05F
:1037E4007FBB37150140CC001305054011B703C753
:1037F4002403894731469305C40FE307F7F693057D
:1038040084109DB7854BB76A0A2031466311790B42
:103814009305040C2800EFC0FFB73146930544110B
:103824004808EFC03FB73146930504120810EFC0B3
:103834007FB631469305C4126810EFC0BFB5314658
:1038440093858A882818EFC0FFB4B71A01401385FE
:103854000AC02C00EFC0FFE613850AC04C08EFC075
:103864005FE60C1037150140EFC0BFE5B72A0140F1
:103874006C1013850A80EFC0DFE42C1813850A80CE
:10388400EFC03FE483C72403E38827EF03C724037F
:1038940089473146930584136304F7009305441460
:1038A400C800EFC03FAFCC0037150140E1B5930528
:1038B400C40C4808EFC01FAE31469305840D0810B0
:1038C400EFC05FAD31469305440E6810EFC09FAC66
:1038D400314693858A882818EFC0DFABB71A0140B8
:1038E4004C0813850AC0EFC0DFDD372B01400C10F4
:1038F40013050B80EFC0FFDC6C1013050B80EFC0C9
:103904005FDC2C1813050B80EFC0BFDB83C72403D7
:10391400639C770131469305040CC800EFC09FA750
:10392400CC0013850AC0B9B503C7240389473146BF
:1039340093050415E303F7FE9305C415F9BF639ECD
:103944000900314693058416C800EFC0BFA437258B
:103954000140CC00130505C029A8054731466390F2
:10396400E90A93054417C800EFC0DFA2CC0037155D
:103974000140EFC01FD5B7650A206312090A31461A
:10398400938545924808EFC0FFA0314693058419FA
:103994000810EFC03FA031469305441A6810EFC0E9
:1039A4007F9F31469305041B2818EFC0BF9EB71AAA
:1039B400014013850AC04C08EFC0BFD013850AC06C
:1039C4000C10EFC01FD0B72A01406C1013850A8079
:1039D400EFC03FCF2C1813850A80EFC09FCE03C7DA
:1039E40024038547E30AF7D803C7240389473146EC
:1039F4009305841CE31AF7D69305C41BB5B36395EA
:103A0400F9009305C41289B793050418C800EFC0E0
:103A14007F9837150140CC001305054099BF054B2D
:103A2400314693854592631969092800EFC09F9632
:103A340031469305441D4808EFC0DF953146930590
:103A440004120810EFC01F9531469305041E681038
:103A5400EFC05F9431469305840A2818EFC09F9302
:103A6400B71A014013850AC02C00EFC09FC5138507
:103A74000AC04C08EFC0FFC40C1037150140EFC05A
:103A84005FC4B72A01406C1013850A80EFC07FC35E
:103A94002C1813850A80EFC0DFC283C72403E38D8B
:103AA40027CD03C72403894731469305841FE319AF
:103AB400F7DE9305C41EEDB34808EFC0BF8D314651
:103AC400930584190810EFC0FF8C31469305441AFE
:103AD4006810EFC03F8C31469305041B2818EFC0D3
:103AE4007F8BB71A01404C0813850AC0EFC07FBD15
:103AF4000C1013850AC0EFC0DFBCB72B01406C105B
:103B040013850B80EFC0FFBB2C1813850B80EFC00F
:103B14005FBB83C72403E38167C703C724038947C3
:103B2400314693054417E30AF7DE93054420F5B3C1
:103B34001305100A51B91C4137070106D98F1CC15E
:103B4400B7370D2093870752D85358C12324050053
:103B54000547639BE5005C4537070005D98F5CC5C5
:103B6400930700185CC982805845B706008C558FAE
:103B740058C51307000C58C983C70703EDF75C4900
:103B840093E71700C5B7914763E5A714EFC20FFB8E
:103B9400368B8546AA891305300B63EBB60EA14715
:103BA400B28A1305100C63E5C70E1305200A6301DE
:103BB4000B0E37340D2093070452B3E7F92094A376
:103BC4008CB3B0A3D8C3139A390013040452939747
:103BD400890093946900B9CD37390D20130909126E
:103BE4003E99416CB7970340BE94814B854C7D1C34
:103BF400B3C70B0863FF57051C54135759002324FC
:103C0400E900B38777032322990133778701268557
:103C14008545850B13090902DA972320F9FE5C50C8
:103C24005450C207D58F2326F9FE98C029379384B0
:103C340004107DBF37390D20130909D23E99416C18
:103C4400B7970340BE94814B7D1CB3C70B0863E355
:103C54005705B78703409387C70FB3C7F920984325
:103C6400C1669386F6F7758F98C352941830102066
:103C740054408C437A077E06C206518FCD8E558FF1
:103C840098C3379703405C4701459397F7295CC76E
:103C94006FC04FEE5C54135759002324E900B387D7
:103CA4007703232209003377870126858145850B15
:103CB40013090902DA972320F9FE5C505450C20715
:103CC400D58F2326F9FE98C0EFF0FFE69384041005
:103CD400ADBF1305200B828031C901000100010032
:103CE40001000100010001000100010001000100C8
:103CF40001000100010001000100B7870340938720
:103D04000710984F1367170098CFD84F1367170001
:103D1400D8CF379703401C4B93E7171C1CCBB7E74E
:103D240000E03707020023A8E7108280EFC28FE388
:103D3400B7E700E03707020023A8E7180F100000D8
:103D4400854537050400EFC05FF881453705040059
:103D5400EFC0BFF7814537050400EFC0DFF1373509
:103D64000D2013060002814513050552EFC0EFE351
:103D74006FC08FE137170C20B7150C20138505D5BC
:103D8400130807E883284500032E4800B707F0FF0F
:103D9400CD1737360D20337EFE00B3F8F8009307B5
:103DA400065283CE170283260800032305008E0ED5
:103DB400DD9AB3E6D6012320D80083C6070283CE5A
:103DC4001703137373FFD2068A0EB3E6D601B3E664
:103DD400C6012322D80083C637028E06B3E66600E6
:103DE40014C183C6270203C31703D2060A03B3E62A
:103DF4006600B3E6160154C103C5070393060652D1
:103E040059E5B7860340930707E8138706139043E1
:103E1400910790C29106E39CE6FEB717110037871D
:103E24000340938707105CD337A70340B7650A2084
:103E340013868182E1489385C5DF05683143130EFB
:103E440007041C22814633050701B3871703AE9785
:103E540083AF0700330FD700B30ED5002320FF0133
:103E640003AFC7009106910723A0EE01E39266FE1B
:103E740041070506E317C7FDB78703409387071873
:103E84002D6723A007001307A7AAD8C3828003C6FF
:103E9400070385476315F6088327C802FD769386D2
:103EA400F60FF58F2326F802930707E837870340B8
:103EB400930607139043910710C31107E31CD7FE21
:103EC400C56737870340938707105CD337B7034030
:103ED400B7650A2013864182E148938545DB7D78E6
:103EE4003143130E07041C22814633050701B387AF
:103EF4001703AE9783AF0700330FD500B38EE600E8
:103F04002320FF0103AFC7009106910723A0EE0110
:103F1400E39266FE41070506E317C7FDB1BF03C779
:103F2400060389476317F70C37870340938705D542
:103F340037860340930507138843910708C3110785
:103F4400E31CB7FE03C7260385476315F70A916789
:103F5400938757055CD237B7034037660A20B765A5
:103F64000A20130606CDE1489385C5CD7D783143FB
:103F7400130E070B1C22814633050701B387170371
:103F8400AE9783AF0700330FD500B30ED7002320BD
:103F9400FF0103AFC7009106910723A0EE01E3924E
:103FA40066FE41070506E317C7FDB78703409387FD
:103FB40007180D6723A007009306A7A2D4C395662C
:103FC4009386565594C7A56693868688D4C791660A
:103FD4009386464494CBB1669386060CD4CB85660F
:103FE4009386161194CF13070703D8CF41677D1723
:103FF40098D3828003C7260389476315F700B74720
:104004000001B9B7B7474001A1B7378703405C4BFC
:104014009316B028FD8E85C28327C70F37370D202E
:10402400130707521833FD8B93864700FD8A1377D5
:10403400F70F014615A08566FD8ED1C683270710AC
:1040440037370D20130707521837FD8B9386470027
:10405400FD8A1377F70F05469A07B7950340AE9785
:10406400884B1318260013731500631B0302B7351E
:104074000D2093850552B365B620903183A8450081
:10408400B78503407A06D18E13960801D18E370680
:1040940000809385C50F13060640C295D18E94C146
:1040A40093760508ADCA944B93E6060894CB8546EF
:1040B4006317D708B7170C20938707D3C2979C437D
:1040C4008297730020308966FD8E85C2832747104E
:1040D40037370D2013070752183BFD8B9386470093
:1040E400FD8A1377F70F094685BF9166F58F85C35F
:1040F4008327871037370D2013070752183FFD8B8E
:1041040093864700FD8A1377F70F0D46B1B78146B2
:104114008147014739BF9376050499CA944B93E6C6
:10412400060494CBE30503F8944B93E61600BDBF55
:10413400137505102DDD944B93E6061085BF884753
:10414400B7170C20938707D4C2979C43829795BFD7
:10415400B7360D20938606523368D520834708006E
:10416400AA8813173500CDCF834728001305100DF7
:1041740063FAF50A93F7750037950340B3C717211F
:104184009A07AA97034518003DC58348380003459C
:10419400280063FDA8020345380005051375F50FD3
:1041A400A301A800C852637DA600C8522E97B73653
:1041B4000D2016079386061242063697498E50C77D
:1041C400D8471317F729D8C70145828023A40700CD
:1041D400C8522E97B7360D2016079386061242064C
:1041E4003697498E50C7D8471317E729D8C7D847F9
:1041F4001317E749C9BF9847D0526370C702984361
:10420400D052CC52B706200081161607758F93162C
:104214000601CD8E1317D72954C723A40700E1B78D
:104224001305100B82803288AA882E87CDEA63FF9B
:10423400C50EC167636AF618B7070001B337F60005
:10424400B307F040E19BE1073353F60097260000E3
:10425400938686CD9A96942213030002B697B306EA
:10426400F340630BF3003397D500B357F5003318CD
:10427400D6005D8FB318D500135608013355C70215
:10428400B346080893D708013377C702B385A6025B
:104294004207D98F63FAB700C2971307F5FF63E4A7
:1042A400070163E8B7303A858D8F33D7C702B3C8A7
:1042B4000808B3F7C702B386E602C207B3E8F800FA
:1042C40063FBD800C2989307F7FF63E508017917E9
:1042D40063E3D8003E874205598D8145828063F5AA
:1042E400D500814501458280C16763E5F618B707AB
:1042F4000001B3B7F600B307F040E19BE10733D800
:10430400F60017270000130727C2429718239308C3
:1043140000023E973388E8406392E81863EDB626BE
:104324003335C500134515008145828045C6C167F4
:10433400637BF62413370610134717000E07B35692
:10434400E60097270000938727BEB6979C23930621
:104354000002BA97B38EF640639DF608B387C54052
:104364008545935606013346060833D5D70213D73D
:104374000801B3F7D7023303C502C207D98F63FA22
:104384006700C2971307F5FF63E4070163E0672240
:104394003A85B387674033D7D702B3C80808B3F761
:1043A400D7023306C702C207B3E8F80063FBC800AC
:1043B400C2989307F7FF63E50801791763E3C80020
:1043C4003E874205598D82809337061093C71700A4
:1043D4008E079DBD8146972700009387E7B4B69763
:1043E4009C23014793060002BA97B38EF640E387F5
:1043F400F6F63318D60133D3F50093560801335E2D
:10440400D302B395D501B357F500CD8F33460808D1
:1044140013D70701B318D5013373D302B305C60309
:10442400420333676700637BB70042971305FEFFBF
:10443400636A07176378B716791E42970D8F335551
:10444400D702B3C707083377D7023303A60242075C
:10445400D98F63FB6700C2971307F5FF63E0071565
:1044640063FE67127915C29793150E01B3876740EF
:10447400C98DE5BD93B7061093C717008E0733D8CF
:10448400F60017270000130727AA4297182393085A
:1044940000023E973388E840E382E8E8335EE600B2
:1044A400B3960601336EDE00B3D8E500935E0E01C9
:1044B400B3D7D803B39505013357E5004D8F334384
:1044C4000E089356070133160601B3F8D803B30553
:1044D400F302C208B3E6160163FBB600F2969388B2
:1044E400F7FF63E3C60D63F1B60CF917F2968D8EF0
:1044F400B3D5D60333470708B3F6D603B308B302DC
:10450400C206558F637B170172979386F5FF636923
:10451400C70963771709F9157297C207C16ECD8F62
:104524009386FEFFB3F5D70013D30701F18E4182C2
:10453400338ED50233071741B306D30293580E01C5
:10454400B385C502B695C6953303C30263F3D5009C
:10455400769393D605019A966363D7026305D700D1
:104564003E8581458280C166FD1633F7D50042073A
:10457400337EDE00331505017297E373E5FE138580
:10458400F7FF81458280B70700016377F6029356EF
:10459400060141477DB38145054582803A85E9B5E9
:1045A400B685A5BF2A8E59BDC68791B77915C2971E
:1045B400CDB37915C297CDB993568601614751B3EE
:1045C4005D7122D406D62A842EDA32DC36DEBAC0F5
:1045D400BEC2C2C4C6C603A5C18111C51C4D81E7B4
:1045E4002AC6A12B32450C455418228636CEEF003C
:1045F4007022B250225461618280011126CA06CE13
:1046040022CC4AC84EC652C4AA8419E11C45029061
:104614001C4D2E89ADE315239C4C8044B9CF9727BC
:104624000000938767A4631DF404C0407C50858B0D
:1046340099E75E2493F7072099E3284C59255E24D3
:10464400A18B99C31C48D5E3A2852685A52A51CD03
:10465400FD547C50858B99E75E2493F7072099E3FA
:10466400284C8D25F24062444249B249224A2685AB
:10467400D2440561828000455DB726857D2945B712
:10468400972700009387479C6314F400804479BF04
:104694009727000093874799E31AF4F8C04479B741
:1046A4001CC4050963C807021C401387170018C0FF
:1046B4008CA31C4483450900FD17FDF11CC463D978
:1046C40007022286A94526858120FD57E302F5F8D5
:1046D400A94441B7184C63C4E700E39745FD22861B
:1046E40026851D20E31735FDA5B7FD59294AD1B705
:1046F4001C401387170018C0294798A3D1BFAA8567
:1047040003A5C1816FF07FEF011122CC26CA4AC8EC
:1047140006CE4EC6AA842E89328401C51C4D91E36F
:10472400292997270000938727946317F402C04030
:104734001C4C1CC45E24A18B99C31C4895EFA28514
:104744002685492015C97D59F2406244D244B249B4
:104754004A85424905618280972700009387C78E66
:104764006314F4008044E9B7972700009387C78B4C
:10477400E310F4FCC0446DBF1C4808409379F90F62
:104784001379F90F1D8D5C486346F500A2852685D3
:10479400912C55F91C440505FD171CC41C401387B6
:1047A400170018C0238037015C486388A7005E2483
:1047B400858BD9DBA947E319F9F8A28526851D2441
:1047C40041D551B7411122C426C24AC006C683A4AA
:1047D400C1812A892E8489C49C4C99E32685B12EF3
:1047E40097270000938747886313F402C040831718
:1047F400C40013F7870025E713F707010DEB2547DE
:104804002320E90093E707045EA47D5571A0972750
:104814000000938767836314F4008044C9BF97271B
:10482400000093876780E314F4FCC044C9B7918BFC
:104834009DC34C5889C9930744046384F5004A8591
:104844008D2B232A04025E242322040093F7B7FD50
:104854005EA41C481CC05E2493E787005EA41C4829
:1048640099EB5E241307002093F707286385E7007C
:10487400A2854A856D218317C40013F717001DC351
:104884005848232404003307E04018CC1848014555
:1048940001E713F707083DF7B24022449244024966
:1048A4004101828013F72700814611E3544814C460
:1048B400F1BF8397C500011122CC26CA06CE4AC88F
:1048C4004EC613F78700AA842E8479E3D841634542
:1048D400E000B8416356E008585459C303A90400E2
:1048E40023A004000C5093D7C748A9CB70485E247A
:1048F400918B99C75C401D8E5C5899C33C401D8EBA
:104904005C540C50814626858297FD57630CF50450
:104914001C480567232204001CC05E24F98F91C340
:1049240068C84C5823A0240185CD930744046384AC
:10493400F5002685BD29232A04021DA001468546CB
:1049440026850297FD572A86E313F5FA9C40C5D3C2
:1049540075476385E70059476395E70623A024015B
:104964000145B5A098408317C40001CFF5466305FF
:10497400D700D9466319D7041C48232204001CC05D
:104984004DB718482322040093D7C74818C041BF25
:1049940083A90501E38609FC03A905008D8B23A0E7
:1049A400350133093941014791E3D84918C4E35922
:1049B40020FB1C540C50CA864E8626858297634F72
:1049C400A0008317C40093E707045EA47D55F2405A
:1049D4006244D2444249B24905618280AA993309AA
:1049E400A940F1B79C49411106C622C426C281EBF5
:1049F4008144B24022442685924441018280AA84A3
:104A04002E8401C51C4D91E30D2A9717000093874E
:104A1400A765631DF402C0408317C400F1DB78501E
:104A2400058B11E793F7072099E3284C592C268529
:104A3400A285EFF01FE87C50AA84858BDDFB5E2401
:104A440093F70720DDF7284CB52C65B797170000BE
:104A54009387875F6314F40080447DBF9717000039
:104A64009387875CE31AF4FAC0447DB7411122C4EA
:104A740006C62A844EA572A523200500232205001C
:104A8400232405002322050623280500232A0500E4
:104A9400232C0500214681451305C505EFB0FF9081
:104AA40097170000938747855CD09717000093877A
:104AB40047871CD4971700009387078B5CD49717FC
:104AC40000009387478DB24000D01CD82244410196
:104AD400828097050000938525F1BDAA411126C265
:104AE400930780069384F5FFB384F4024AC02E89A9
:104AF40022C406C69385440775262A8401CD232043
:104B0400050023222501310508C413868406814546
:104B1400EFB0BF89B2402285224492440249410148
:104B240082801385018771AA1385018761AA138581
:104B3400418741AA1385418771A2411122C406C647
:104B44002A84F5371C4C89C72244B2404101DDB7A1
:104B540097070000938727F81CD4232404042326F2
:104B640004042328040483A7C1826394870085472F
:104B74001CCC2285152848C022853D2008C42285E6
:104B8400252048C4484001469145EFF03FEE0844D3
:104B94000546A545EFF09FED48440946C945EFF0A9
:104BA400FFEC85471CCC4DB7411126C24AC006C64E
:104BB40022C42A89EFF0FFF683A4C1829C4C81E7CA
:104BC4002685EFF09FF7938484048044DC40FD172E
:104BD40063D607009C40A5C78440C5BF0317C40023
:104BE40021EFC17785075CC41305840523220406DD
:104BF400C128EFF07FF3214623200400232404007E
:104C04002322040023280400232A0400232C040064
:104C140081451305C405EFB04FF9232A0402232C60
:104C240004022324040423260404B24022852244DB
:104C340092440249410182801304840649BF91458C
:104C44004A85EFF0BFE988C02A8459F5EFF0DFED1B
:104C5400B1472320F900D1BF797122D44AD04ECE76
:104C640052CC5AC85EC606D626D256CA2A892E8A7D
:104C7400130485048149054BFD5B0444832A4400E5
:104C8400FD1A63D00A0200406DF8B25022549254C7
:104C94000259624AD24A424BB24B4E85F2494561AF
:104CA4008280DE24637BFB008397E40063877701C3
:104CB400A6854A85029AB3E9A90093848406C9B7F4
:104CC4008280828082805971A2D42E848395E500EB
:104CD400A6D2CAD086D6B284368963D205025E24AF
:104CE40093F707088DEB13070040B6502654232092
:104CF400F90098C0065996540145656182803000D8
:104D0400ED25E34E05FC3247BD67F98F7977BA97F5
:104D140093B71700C9BF814713070004F9B7DE250D
:104D2400797122D406D626D24AD04ECE898B2E84CF
:104D340091CF930774041CC01CC885475CC8B2504B
:104D4400225492540259F249456182807400300021
:104D5400AA84EFF05FF7A2492A892685CE85992295
:104D640019E98317C40013F7072071FBF19B93E73C
:104D740027005EA47DBF970700009387C7D59CD406
:104D84005E2408C008C893E707085EA4B247232A34
:104D9400340199CB8315E4002685A52D11C55E2425
:104DA400F19B93E717005EA45E2433E527014AA430
:104DB40079B7D1CD83A7C5FF011122CC06CE1384C8
:104DC400C5FF63D307003E942AC6452D1387C187C8
:104DD4001C43324581EB2322040000C36244F240A9
:104DE400056145A5637DF4001040B306C4006396D5
:104DF400D7009443DC43B29614C05CC0F9BF3E872D
:104E0400DC4399C3E37DF4FE14433306D700631FE8
:104E140086001040B29614C33306D700E390C7FC53
:104E24009043DC43B29614C35CC34DBF6375C400A6
:104E3400B1471CC165B71040B306C4006396D700E0
:104E44009443DC43B29614C05CC040C341BF82802B
:104E540041114AC0138981878327090022C426C2CD
:104E640006C6AA842E8489E781458D212320A900C2
:104E7400A2852685A1297D59631A25017D54B24056
:104E84002285224492440249410182801304350060
:104E94007198E30685FEB305A44026850529E31031
:104EA40025FFE9BF011126CA93843500F1984AC849
:104EB400A104B14706CE22CC4EC62A89B3F4F40A23
:104EC40063C4040063FDB400B1472320F900014525
:104ED400F2406244D2444249B24905618280712B56
:104EE4009389C18783A709003E8421E8A6854A8562
:104EF400EFF01FF6FD572A846317F50A03A409008F
:104F0400A287C9EB8329040081454A85A2997D2E95
:104F14006395A9081C408D044A859D8CF198B1477E
:104F2400A104B3F4F40AA685EFF09FF2FD576306DB
:104F3400F5061C40A6971CC015A01440858E63C8B6
:104F440006042D47637DD70204C03307940063969B
:104F5400870223A0E9005C4014C35CC34A8515237F
:104F64001305B4009307440061993307F540E30146
:104F7400F5F63A94898F1CC0A1BFD8C3E9BF584045
:104F84006395870023A0E900D1BFD8C3C1BFA2871E
:104F94004040A1BF3E84DC43ADB7B1472320F900B4
:104FA4004A85C5212DB704C155BF1C46FD171CC633
:104FB40063DA0700184E63C5E700A9476394F50058
:104FC4006FF08FF41C422E851387170018C28CA330
:104FD4008280011122CC26CA4AC84EC652C406CECB
:104FE4002A89AE893284B304D6007D5A63149400AE
:104FF400014509A80C204E864A85EFF01FFB0504E5
:10500400E31645FFF2406244D2444249B249224A7F
:1050140005618280357122CD26CB4AC94EC706CFA1
:1050240052C556C35AC1DEDEE2DCAA892E84328917
:10503400B68409C51C4D99E3EFF03FB09717000003
:10504400938787026318F40403A449007C50858B7A
:1050540081EB5E2493F7072081E7284CEFF07FC6AD
:105064005E24A18B99C31C48A5E3A2854E85EFF06D
:105074006FF539C97C50858BA1C37D55FA406A44CC
:10508400DA444A49BA492A4A9A4A0A4BF65B665CA8
:105094000D61828097170000938707FB6315F40066
:1050A40003A4890065B7971700009387E7F7E31F08
:1050B400F4F803A4C90059BF5E2493F70720D5FF71
:1050C400284CEFF03FC055BF93070002A304F10240
:1050D4009307000302D22305F10226C6930B500264
:1050E400971A0000938A4AFA294BCA849C2099C3D0
:1050F400639A7709338C2441638E2401E2864A86BD
:10510400A2854E85EFF0FFECFD576306F518925724
:10511400E2973ED29C2063800718FD571389140040
:1051240002C802CE3ECA02CCA309010482D483453C
:105134000900154656853526C2479304190029E50A
:1051440013F7070109C713070002A309E10413F7C2
:10515400870009C71307B002A309E10483460900C5
:105164001307A0026389E602F247CA8481462546F2
:10517400982093851400130707FD6372E60685C61D
:105184003ECE15A085049DB733055541B397A72896
:1051940026893EC869BF324793064700184336C67E
:1051A400634807023ACE98209307E002631CF70491
:1051B40098309307A002631AF702B2478904138751
:1051C40047009C433AC67D57B3E7E70A3ECA1DA889
:1051D4003307E04093E727003ACE3EC8E9B7B387E8
:1051E4006703AE848546BA9761B7850402CA8146CF
:1051F40081472546982093851400130707FD6372A1
:10520400E606E9F68C200D4617150000130545E85F
:10521400892C11CD97170000938787E71D8DC2470E
:10522400130700043317A700D98F85043EC88C20C8
:105234001946171500001305E5E513891400230426
:10524400B102052435C99307000095E74247B247E8
:105254001377071009CF91073EC69257D2973ED2D3
:1052640069B5B3876703AE848546BA9761B79D076E
:10527400E19BA107D5B77800970600009386A6D5D1
:1052840022860C084E8597000000E7000000FD57B9
:105294002A8AE314F5FC7C50858B81EB5E2493F71A
:1052A400072081E7284CEFF0FFA15E2493F7070461
:1052B400E39507DC1255D9B378009706000093866E
:1052C40086D122860C084E85F124D1B7411122C41F
:1052D4002A842E8523A0018806C6EFB05FDBFD5724
:1052E4006316F50083A7018891C31CC0B240224411
:1052F40041018280411122C42E848395E50006C6B3
:10530400012B634905007C48AA977CC8B24022441B
:10531400410182805E249397C7485EA4C5BFDE2501
:10532400011122CC26CA4AC84EC606CE93F70710EE
:10533400AA842E843289B68991C78395E50089466B
:105344000146DD285E248315E400F2409397C748A4
:105354005EA46244CE864A86B24942492685D24436
:1053640005611DA8411122C42E848395E50006C65B
:10537400E1207D575E246319E5009397C7485EA436
:10538400B2402244410182809397C72868C85EA432
:10539400C5BF8395E5003DA0411122C42A842E8512
:1053A400B285368623A0018806C6EFB0BFCAFD5772
:1053B4006316F50083A7018891C31CC0B240224440
:1053C40041018280411122C42A842E8523A00188B0
:1053D40006C6A521FD576316F50083A7018891C36E
:1053E4001CC0B240224441018280411122C42A845B
:1053F4002E85B28523A0018806C6B121FD57631608
:10540400F50083A7018891C31CC0B2402244410126
:105414008280411122C42A842E8523A0018806C6D5
:105424000D29FD576316F50083A7018891C31CC09D
:10543400B240224441018280411122C42A842E8533
:10544400B285368623A0018806C61129FD57631646
:10545400F50083A7018891C31CC0B24022444101D6
:10546400828093F5F50F2A966314C5000145828066
:105474001C21E38EB7FE0505C5BF1385C1866FF0F9
:105484005F841385C1866FF0FF83797156CA9C4986
:10549400BA8A984522D44AD04ECE52CC06D626D2C9
:1054A4005AC85EC6B3E7E70A1CC203C73504AA8913
:1054B4002E843289368A19C385071CC21C4093F78F
:1054C400070291C78327090089072320F9000440B4
:1054D400998891E8130B9401FD5B5C440327090050
:1054E400998F63CCF40483473404B336F0001C4032
:1054F40093F70702A5EB13063404D2854E85829AEE
:10550400FD576303F5041C4011478144998B63994B
:10551400E7008327090044449D8C8147B3E4F40ADF
:105524001C4418486354F700998FBE9401496904D8
:105534007D5B63982405014509A885465A86D28572
:105544004E85829A631E75017D55B2502254925441
:105554000259F249624AD24A424BB24B45618280B7
:105564008504A5BF3307D40013060003A301C704B1
:105574000347540493871600A2978906A381E7047E
:105584009DBF85462286D2854E85829AE30E65FBB1
:10559400050945B7797122D44AD04ECE52CC06D6ED
:1055A40026D256CA5AC803C88501930780072A8998
:1055B4002E84B289368A63E2070393072006938612
:1055C400350463E10703630C081C93078005171671
:1055D40000001306A6AC6308F81493042404230102
:1055E400040515A89307D8F993F7F70F5546E36612
:1055F400F6FE171600001306E6ACB3C7C7209C439B
:10560400B29782871C4393842504938647009C4366
:1056140014C32381F504854775A290411C43137577
:1056240006089385470029C19C430CC3584063DF97
:1056340007129305D002A301B40418C4635E0702E1
:10564400B307F04017160000130646A52948B68490
:1056540033F70703FD143297182398A03E87B3D776
:105664000703E37707FF85A09C43137506040CC367
:1056740055DD939757605DBF6D9A10C0D1B79041C7
:105684001C43137506089385470001C50CC39C434E
:1056940031A0137606040CC37DDA9E231307F006AB
:1056A400171600001306869F6310E80C2148A30117
:1056B4000404584018C4E34C07F80C40ED990CC09E
:1056C400D9F7B68449F7A147631EF8001C40858BBF
:1056D40091CB58401C4863C7E70093070003A38F8E
:1056E400F4FEFD14858E14C85287CE867000A28500
:1056F4004A85EFF09FD9FD5A631A550D7D55B25076
:10570400225492540259F249624AD24A424B4561A8
:1057140082809C4193E707029CC1130880071716F7
:1057240000001306E698A30204050C401C4313F87A
:105734000508138547006305080008C39C4339A086
:1057440013F8050408C3E30B08FE9E2313F71500A2
:1057540001C793E505020CC099C3414889BF1840AD
:105764001377F7FD18C0D5BF294891B71716000065
:105774001306C692294835BF90411C43CC4913787F
:105784000608138547006306080008C39C438CC3BE
:1057940039A008C3137606049C4375DA8EA3232824
:1057A4000400B68491B71C43D041814593864700D9
:1057B40014C384432685EFF0DFCA01C5B3079540BF
:1057C4005CC05C401CC8A301040439BF144826868D
:1057D400CE854A85029AE30355F31C40898B85E7FD
:1057E4004844B2473365F50A19BF85465686CE85C7
:1057F4004A85029AE30465F185045C443247998F33
:10580400E3C5F4FEF1BF8144930A94017D5BF5B7CF
:10581400411122C42A842E85B285368623A00188AC
:1058240006C6A120FD576316F50083A7018891C31E
:105834001CC0B2402244410182809307800523A00A
:10584400F1887D5582809307800523A0F1887D55DA
:1058540082809307800523A0F18801458280930705
:10586400800523A0F1887D5582809307800523A0BD
:10587400F1887D558280000000FC000003000000D8
:1058840018000000030000000300000018000000DE
:1058940000E000000300000028000000C003000036
:1058A400030000002800000000FC000003000000CA
:1058B400280000000700000003000000280000008A
:1058C40000E000000300000018000000C01F0000FA
:1058D40003000000180000001FFC0000030000008B
:1058E400180000000700000003000000180000007A
:1058F400FFFC000003000000180000003F0000004F
:10590400030000001800000000080000030000006D
:10591400100000000100000003000000100000005F
:10592400004000000300000010000000000200001E
:1059340003000000100000000078000003000000D5
:105944001000000000040000030000002800000014
:1059540000040000030000004800000000500000A4
:1059640003000000280000000020000003000000E5
:1059740010000000002100000300000010000000DF
:1059840000230000030000001000000002040000D7
:1059940003000000280000000800000003000000CD
:1059A4004800000000400000030000002800000040
:1059B40002000000030000001000000006000000C8
:1059C4000300000010000000017800000300000044
:1059D4001000000003780000030000001000000025
:1059E400000800000300000028000000010000007F
:1059F4000300000028000000000200000300000073
:105A040028000000007800000300000048000000A7
:105A14000004000003000000100000000024000047
:105A240003000000480000000050000003000000D4
:105A34001000000000010000030000002800000026
:105A4400000300000300000028000000020400001E
:105A5400030000001000000000200000030000000C
:105A640048000000020000000300000028000000BD
:105A740006000000030000002800000003000000EE
:105A84000300000028000000563546205379737443
:105A9400656D436F7265436C6B3A25640D0A0000B3
:105AA4003E130A205E130A207A130A2098130A2050
:105AB400BA130A20D8130A20F6130A2004140A2061
:105AC40012140A2024140A2040140A205C140A2008
