:080000006F30D01F000000006A
:10000800B71402409305E0408CC483A20400370370
:100018000001B3E2620023A0540083A30400370E5A
:100028000002B3F3C301E38A03FE83AE8400370FF3
:100038000080B3EEEE0123A4D401894F23A2F4017A
:1000480003A94400A14933793901E30B09FE1305DB
:10005800000F9705FFFF9385E5FA1746FFFF130684
:10006800268B63FAC5008322050023A055001105DD
:100078009105E3EAC5FE1745EFDF1305A5A09745EF
:10008800FFFF9385E5881746FFFF1306668863FA26
:10009800C5008322050023A0550011059105E3EA58
:1000A800C5FE1745EFDF1305E59D9705000093850D
:1000B80065051386018463FAC5008322050023A021
:1000C800550011059105E3EAC5FE138501849725BE
:1000D80000009385A5766377B500232005001105F8
:0800E800E36DB5FE828000000B
:1000F0000000000000000000DA021020DC021020E6
:100100000000000062061020000000000000000057
:1001100062061020620610200000000000000000AF
:100120006206102062061020EC0210200000000081
:10013000620610206206102062061020620610205F
:1001400000000000000000000000000000000000AF
:10015000000000000000000000000000000000009F
:1001600062061020000000000000000000000000F7
:10017000620610206206102062061020620610201F
:10018000620610206206102062061020620610200F
:1001900062061020620610206206102062061020FF
:1001A00062061020620610206206102062061020EF
:1001B00062061020620610206206102062061020DF
:1001C00062061020620610206206102062061020CF
:1001D0009412102062061020620610206206102081
:1001E0006206102000000000620610206206102047
:1001F000620610206206102062061020620610209F
:10020000620610206206102062061020620610208E
:10021000620610206206102062061020620610207E
:10022000620610206206102062061020620610206E
:10023000620610206206102062061020620610205E
:10024000620610206206102062061020620610204E
:10025000620610206206102062061020620610203E
:10026000620610206206102062061020620610202E
:10027000620610206206102062061020620610201E
:10028000620610206206102062061020620610200E
:1002900062061020620610206206102062061020FE
:1002A00062061020620610206206102062061020EE
:1002B0006206102062061020620610200000000076
:1002C00062061020620610206206102062061020CE
:1002D00062061020620610206206102062061020BE
:1002E0006206102062061020000000006206102046
:1002F00062061020000000000000000062061020CE
:1003000000000000000000006206102062061020BD
:100310006206102062061020620610200000000015
:10032000620610206206102062061020620610206D
:10033000620610206206102062061020620610205D
:1003400062061020397101436EC619A039714153FC
:100350006AC866CA62CC5ECE19A0397101535AD000
:1003600056D252D44ED64AD826DA22DC06DE3301E3
:100370006140828241114AC026C222C406C68282DE
:10038000B24D4101024D924C224CB24B4101024B05
:10039000924A224AB2494101024992442244B2405F
:1003A000410182802A8309CA8383050023007300E8
:1003B0007D16050385056DFA82802A8311C6230008
:1003C000B3007D16050365FE828001A0B707EFBE6E
:1003D00037E700E0938707083CC701A01967028749
:1003E00001A0EFF23FF9A920F52AEF10807C371524
:1003F0000E00EF1050011305401FEF10A07D83A5E4
:100400008180373510201305C556EF10907BB70754
:10041000112083A5471E373510201305C557EF104F
:10042000507A1305401FEF10E07AEF10B01101A0D1
:10043000EFF25FF4B71702409843B7065C30411102
:100440001367170098C3D84337140240758FD8C379
:100450005C40B18BF5FF5C403707A76A7D17939727
:1004600067495CC01C449397F7491CC41C40F98F32
:100470001CC01C4037C7FF0F939727491CC01C4462
:10048000F98F1CC41C443707600C93E747001CC459
:10049000B707FF005CC41C58F98F1CD85C5837E7BD
:1004A000F0FF13070708F98F5CD85C58370708007E
:1004B00013070702D98F5CD8EF00300002C202C4D4
:1004C00002C61C40B7160240370602009397072960
:1004D000370700011CC09C42F18F3EC4924785073C
:1004E0003EC2A24781E79247E397E7FEB717024073
:1004F0009C4337070200F98FE5C785473EC4224772
:100500008547631DF70CB71702409847F17693862D
:10051000F60F019B98C798471367070198C798473C
:10052000758F98C798479306000298C79847137726
:10053000F7F198C798471367070298C7984713774A
:10054000070EE31DD7FE9843B7060002131787294D
:1005500098C3B71702409843758F75DF9847B70661
:100560000090FD161317F74998C79847758F98C7DD
:10057000B7060070B71702409847758F75FFD843CC
:10058000B706FDFFFD161377F7F0D8C3D843D8C3DD
:10059000D843758FD8C3D843B726024013171729FD
:1005A000D8C398423AC63247719B3AC6324713675E
:1005B00017003AC6324798C29847B7160240131739
:1005C000F72998C7D843719BD8C3D843136727002E
:1005D000D8C32147DC42B18BE39EE7FE41016DBBEE
:1005E00002C431BFB7170240D44398472146B18AAD
:1005F0006394C602B7060070758F37060050630516
:10060000C7146360E6021DC7B7479C1CB7060040CD
:10061000938707806307D706B7877D019387078491
:100620008DA0370600606302C710B7677307938712
:100630000794CDB79047944798479305000A93F6DF
:10064000060E21831377F7037D8A05076394B608A6
:10065000B767CD1D9387075033D7E702B70711203F
:1006600093870712B2979C239146B387E7026309E9
:10067000D600856693860654B3D6C600858A91C295
:10068000858323A4F1803716024054423707112096
:10069000130707119182BD8A36971823B7061120D8
:1006A0009386061EB3D7E7005842416641830D8BFF
:1006B0003697182333D7E70023A0E184B7F600E08C
:1006C00083A606D1F18E91E2BA8737071120232243
:1006D000F71E82809305000E6392B602D45BB707C3
:1006E000112093870710C182B6979C23B7867D019E
:1006F00093860684B387D7028583B9BF9307000822
:100700006397F600B7479C1C93870780B1B79307A0
:10071000000C6397F600B7677307938707942DBFA4
:10072000B7877D019387078405BFD85BB707112082
:10073000938707104183BA979C2337877D0113075E
:100740000784B387E7022DBFB767CD1D9387075096
:100750000DBF01A0011106CE22CC0010B707000882
:100760009C432326F4FE1520AA872326F4FE832724
:10077000C4FE93F707F02326F4FE8327C4FE998373
:100780003E85F240624405618280B7270240C84F2F
:1007900009818280B7270240C847058911E5C8470B
:1007A0004189133515000D058280EFF2BFBCAA8484
:1007B0000549CD376318250199E0154529A0D93F92
:1007C000FD14CDBFFDD8C9BEEFF2DFBAB727024096
:1007D000DC5737070010F98F8DCFF9773379F500A3
:1007E0003705000AD93791476314F502B724024050
:1007F0009C483705000A93E727009CC823AA2401D8
:100800009C4893E707049CC84D379C48F59B9CC8BF
:1008100061B6FD77E1B7EFF25FB44111AA89370500
:10082000000A2E8902C6114A4937631E4503B724C0
:1008300002409C483705000A93E717009CC8B3475D
:1008400009082390F9009537631C450189094EC6B4
:10085000B247135909013705000A23902701B13720
:100860009C48F99B9CC841011DB6B7066745B72750
:100870000240938636123797EFCDD4C31307B79A49
:10088000D8C3D4D3D8D38280372702401C4B1375EA
:1008900005F0939707291CCB5C47858BF5FF37271D
:1008A00002405C47898BF5FF372702401306001092
:1008B000B386F50003A80600B386A70023A00601AF
:1008C0005447898AF5FE9107E394C7FE1C4B939722
:1008D00057291CCBB7270240D847058B75FF984B8B
:1008E0001317074998CB8280EFF2DFA8B7170140B2
:1008F00013870780631BE50085451145EF007003F2
:1009000081451145EF00F00241BC138707C0631910
:10091000E50085452145EF00D00181452145DDB742
:100920006319F50085454145EF00B000814541451B
:10093000D1BF93870740631BF5008545130500026F
:10094000EF00207F8145130500026DBFB7270140EE
:1009500013870780631BE500854513050004EF003E
:10096000407D81451305000471BF938707C0E31DD7
:10097000F5F8854513050008EF00A07B81451305B8
:10098000000849B79C4503D8050013F7070193F801
:10099000F7001DCB584D93E8180081468D4E414E0F
:1009A0003316D0283373C800631C660013931600F7
:1009B00033966E003377C740D04133166600518FAF
:1009C0008506E39FC6FD58CD1377F80F1DCF18415C
:1009D0008146130380023D4E930E8004A1453316D9
:1009E000D028337FC800631EE6016395670650C9AF
:1009F00013962600331FCE003396C8003377E741A5
:100A0000518F8506E39DB6FC18C11307F00F637282
:100A1000070554410146130E8002930E80042143C2
:100A2000130786003317E028B375E800631FB7008B
:100A30006396C70358C913172600BD45B395E50053
:100A40003397E800B3F6B640D98E0506E31A66FC84
:100A500054C18280E39ED7F910C959BFE39DD7FDE9
:100A600018C9D1BF37080140B70730000326080076
:100A7000B376F500334705086397F602B70600F131
:100A8000FD16B377D60003260800F18E2320D80088
:100A900099C54581137505073317A700D98F370707
:100AA00001401CC38280B7071000E98F89CF93569D
:100AB0000501BD8A8D47B397D700B706000FB377FE
:100AC000F640D58FF1B7935755019207B317F7004A
:100AD000EDB7371701409D479306078063F8B702CB
:100AE000938785FF93F7F70F631AD506B706014082
:100AF0008C468A073D473317F70033F7E54098C621
:100B00009846B317F600D98F9CC682806308D50239
:100B1000930707C0630AF508631CE5163707014011
:100B2000544B8A05BD47B397B700B3F7F6405CCB8B
:100B30005C4BB315B600DD8D4CCB8280370701408E
:100B400054438A05BD47B397B700B3F7F6405CC37B
:100B50005C43B315B600DD8D4CC38280930607C09D
:100B60006304D5026312E510B70601408C4E8A0774
:100B70003D473317F70033F7E54098CE984EB3174B
:100B8000F600D98F9CCE8280B70601408C4A8A0736
:100B90003D473317F70033F7E54098CA984AB31733
:100BA000F600D98F9CCA82803707014054478A05D6
:100BB000BD47B397B700B3F7F6405CC75C47B315C2
:100BC000B600DD8D4CC782803727014013070780B0
:100BD000AE876318E5043707014054538A05BD47C3
:100BE000B397B700B3F7F6405CD35C53B315B600C8
:100BF000DD8D4CD3828037270140130707806312B5
:100C0000E502B70601408C568A073D473317F700C7
:100C100033F7E54098D69856B317F600D98F9CD68F
:100C2000828037270140130707C06317E5088A074A
:100C30003D473317F7003316F6009D471347F7FF7C
:100C400063FBB700B7070140945B758F98DB985B37
:100C5000518F98DB8280B7070140D457758FD8D762
:100C6000D857518FD8D7828013070740E315E5F88E
:100C7000B70601408C528A073D473317F70033F718
:100C8000E54098D29852B317F600D98F9CD2828053
:100C900013070740E31AE5F237070140544F8A056E
:100CA000BD47B397B700B3F7F6405CCF5C4FB315C1
:100CB000B600DD8D4CCF82808280EFF2AFEB411128
:100CC00085451305C00F02C202C402C63D21593436
:100CD000B7F7FF1F83A7477093F7070F8DE385458D
:100CE000370500800D29B787004093870740D85308
:100CF00081453705008013671700D8D32929B7F736
:100D0000FF1F83A74770370771411307D75093F729
:100D1000F7F06380E7086361F70237075041130774
:100D2000D750638DE70C370760411307D7506385B1
:100D3000E71241016FF04FE6370772411307D750B2
:100D4000E399E7FE09649307F4FDB71401407C8240
:100D50004C0093078002138504803EC62531E1775D
:100D60009387C70F4C00138504C07C822139F97723
:100D7000938707034C00371501407C82213193078C
:100D800000304C001385044071147C82E53E608283
:100D9000B9A0371401409307E01C7C824C009307F4
:100DA0008002130504803EC6F13EE1779387470E2B
:100DB0004C00130504C07C82F136F9779387070352
:100DC0004C00371501407C82753E930700304C0083
:100DD000130504407C827D36930740387C8237249B
:100DE00001404C0013050480713E9167938707FC16
:100DF0004C00130504C07C82713625BF37140140B6
:100E000093070010130504807C824C009307800236
:100E10003EC68D3E93074002130504C04C007C8201
:100E20009536F977938707024C00371501407C828D
:100E3000913EDD57130504404C007C82372401406D
:100E40009136930770784C00130504807C821D3E18
:100E5000E17793C777FC69BF3714014093070070AF
:100E6000130504807C824C00930780023EC6193E25
:100E7000930740C0130504C04C007C822136F977EB
:100E80004C00371501407C82F53C9307309F1305D9
:100E900004404C007C82FD34E1773724014093C745
:100EA000F7DF4C00130504807C82E93C956793874B
:100EB000F7833DBFB71702409843B7065C3013670E
:100EC000170098C3D843758FD8C3371702405C43C7
:100ED000B18BF5FFB7170240D4433706A76A7D16DA
:100EE00093966649D4C394479396F64994C714439E
:100EF000F18E14C314439396264914C39847B7C67A
:100F0000FF0F758F98C79847B706600C13674700A7
:100F100098C73707FF00D8C7985B758F98DBD85BF9
:100F2000B7E6F0FF93860608758FD8DBD85BB70667
:100F3000080093860602558FD8DB8280B7170240DF
:100F4000D44398472146B18A6394C602B70600701D
:100F5000758F37060050630EC7146360E6021DC725
:100F6000B7479C1CB7060040938707806307D706E6
:100F7000B7877D01938707848DA037060060630BD8
:100F8000C710B767730793870794CDB79047944707
:100F900098479305000A93F6060E21831377F7030B
:100FA0007D8A0507639DB608B767CD1D93870750F7
:100FB00033D7E702B707112093870716B2979C2310
:100FC0009146B387E7026309D60085669386065487
:100FD000B3D6C600858A91C285831CC137160240EC
:100FE000544237071120130707159182BD8A36979F
:100FF000182393868181B3D7E70058424166418325
:101000000D8B36971823B7F600E033D7E70058C1A9
:1010100083A606D1F18E91E2BA871CC5371602402D
:101020005C4263DD07085C4237479C1C130707805E
:10103000AD83FD8B95073357F70258C58280930522
:10104000000E6392B602D45BB70711209387071492
:10105000C182B6979C23B7867D0193860684B387A9
:10106000D7028583B1B7930700086397F600B747A7
:101070009C1C938707802DBF9307000C6397F60095
:10108000B76773079387079425B7B7877D01938761
:10109000078439BFD85BB7071120938707144183B2
:1010A000BA979C2337877D0113070784B387E7022C
:1010B00025B7B767CD1D9387075005B7544293876F
:1010C0000181AD829D8AB6978C235C429386C18054
:1010D000B9838D8BB6979C233357B700A9BF99C5A9
:1010E000371702401C4FC98F1CCF8280B7170240B0
:1010F000984F3375A74088CF828099C53717024033
:101100005C4FC98F5CCF8280B7170240D84F3375D0
:10111000A740C8CF828099C5371702401C53C98F9A
:101120001CD38280B717024098533375A74088D3E9
:10113000828099C5371702401C4BC98F1CCB828017
:10114000B7170240984B3375A74088CB828037177A
:1011500002401C4309C5939747291CC3828093977B
:101160004749E5BF371702405C4309C59397772984
:101170005CC3828093977749E5BFB7170240D85B7D
:10118000719BD8DBD85B498FD8DB8280B7170240D0
:10119000D85B4D9BD8DBD85B498FD8DB8280B717F3
:1011A0000240D85BF9769386F60F758FD8DBD85B53
:1011B000498FD8DB8280EFF2EF9B1A29F577FD1774
:1011C0007D8FFE2196254111D98F1EA9DE215A253A
:1011D0002A84D58FB625AE84D58F8D669386369FAB
:1011E000758FD98F5EA55E29DA25B3C7070893F7F7
:1011F000F7CFD98F5EA90A85913392476545904014
:10120000B335F50281460A063305F502EF00D061D9
:1012100093064006B357D5021306F06313974700B1
:10122000B377D502920793872703637AF600930773
:101230000701B3C707081EA441016FF0EF95B3D7AC
:10124000D702D98FFDB75E2589C59397D7285EA5AC
:10125000828079777D17F98FDDBF93F5F51F4EA159
:1012600082800A216D8D3335A0008280EFF28F904D
:10127000B71702409C4737070070F98F37070040C7
:101280006383E7020145E1350145C53D0145FD3D6B
:10129000014531370545653DB71602403707200047
:1012A0009C42F98FF5DF0545753D85451315B0283E
:1012B0003D356FF06F8EB70703402D479AAB15474A
:1012C000BAAB13070004F8CFA146B4D3F8D3B8D70C
:1012D0001387C18C98D313874184B8C31387C188FF
:1012E00098D713874199B8C7238F07080947A38F59
:1012F000E7082381070AA383E70A2385070A238EC9
:1013000001848280EFF20F8701C58D376FF0CF889F
:1013100081451315B028E1330145A935B7170240BF
:101320009C4737070070F98F37070040E380E7FEDE
:101330000145313DE1BFEFF2EF831DC5053F3704A5
:101340000340A5471CA09307F0053CA0AD37854797
:101350001CB0930780FB1CA037070001B7E700E033
:1013600023A2E7106FF04F83B70703400D4798A300
:10137000B7E700E03707000123A2E7180F100000CD
:101380005137CDB7011122CE26CC4ACA4EC852C61B
:1013900056C45AC25EC03704034014241C3413F7E9
:1013A000F60FC18A6389065293F7F70F13F7770098
:1013B000C18B639A074019CF8947630AF73A724491
:1013C000E2445249C249324AA24A124B824B056159
:1013D000730020308347F40993F7F707A30FF4084D
:1013E0008347F409A18B638307348347F4099397F8
:1013F000476063CD07321387C18C1C233623238BB0
:10140000F1841C339385C18CA38BF1847E235A23F2
:101410002398F184239AD1842399E18483C9618537
:1014200093F909066389090883C7618513070002D8
:1014300093F70706639FE71083C6718513061002B2
:1014400013F7F60F6384C6061377D70F6313F710ED
:1014500083C761859397476063DE072A83C76185E9
:101460001307000293F70706639DE72603C77185FC
:10147000930710026317F72683D701851D4463661F
:10148000F40003D401853344040822869385C18186
:101490001385C18CEFE01FF1B70703402398018447
:1014A000239E87081947238FE70811BF9387C181BF
:1014B00023ACF18471BF03C671852D451377F60FF8
:1014C0006369C50837361020130646593347C720CD
:1014D0001843028703D74185894621836300D702D9
:1014E0000D466300C7088547631FF708B73710200C
:1014F0009387876523ACF1849C2319A8B737102004
:101500009387C760B82323ACF184BC33A207D98F7B
:1015100003D7018563F4E7002398F18403D701859D
:101520009307F003130B000463E6E70003DB018578
:10153000334B0B0883AB81855A861385C18CDE85BE
:10154000EFE05FE6DA9B23AC71859307F00FE39140
:10155000F9F0B70703401547238FE708A38FE70883
:10156000B9BD83D7418593F7F70F6387D70263EA45
:10157000F60091EF9387818323ACF18481499C230A
:1015800041BF6380E70281479309F00F51B7B73736
:1015900010209387C75FB9BFB73710209387C75D07
:1015A00091BFB73710209387475CA9B783D7418590
:1015B00093F7F70F2387F18461BD83C7F1849CA162
:1015C00003D701858547E3F5E7E82398F18449B51A
:1015D00083D7418593F7F70FA387F18405472386C7
:1015E000E184BDB503C7618509467D8B6316C704D9
:1015F00083D7418593F7F70FA9FF83D721859306FA
:10160000100893F7F70F638DD70093063008638EA9
:10161000D700E390E7F437070340A303F70A0DBDB3
:10162000B70703402381070A25B5B7070340238581
:10163000070A238E018429BD03C761857D8BE31AC8
:1016400007F083D74185054793F7F70FE393E7F05A
:1016500083C7D18493F7E70FA386F184D5BB03C773
:10166000618509467D8BE316C7EE83D7418593F7E5
:10167000F70FE39F07DC83D721859306100893F7C4
:10168000F70F6381D702930630086388D702E3928D
:10169000E7EC370703408347770A93F7C70F93E7D1
:1016A0001700A5BF370703408347270A93F7C70FE3
:1016B00093E717002301F70A61BB3707034083470D
:1016C000A70A93F7C70F93E717002305F70A49B353
:1016D00023800500F5B503D701852396018C894742
:1016E000DDB503D701859307000463E6E70083D7E0
:1016F0000185B3C7070803D701851D8F3347070846
:101700002398E18437070340231EF7089947230FE6
:10171000F70875B183D7018591E7B7070340239E8A
:10172000070849B3B707034019470DBDB707034082
:10173000A38F070803D7C70783C7618593060002F5
:101740003347070893F707066390D70283C671856E
:10175000639CF600994763F9E7001D469385C18CA9
:101760001385C181EFE01FC4239801847DB78347AF
:10177000740A93F7F707A303F40A8347740AC18B2B
:1017800095CB8355440893F5F50F81C51385C18822
:10179000312C370703408347770A93C74700A303D9
:1017A000F70A8347770A93F7C70F93E72700A30346
:1017B000F70A31B18347740A93F7C70F93E72700FD
:1017C000A303F40AEDBE8547630FF70A8D47630F45
:1017D000F70CE31607BE8347E40993F7F707230FD7
:1017E000F40883D7018581E79947A30FF40883C7DD
:1017F000618593F70706E39407BC83C77185954617
:1018000013F7F70F6384D70699476319F70603D7D1
:1018100001859307F0031304000463E6E70003D493
:1018200001853344040803A981852286CA8513856E
:10183000C18CEFE03FB783D70185229923AC218586
:10184000818FB3C707082398F184B7070340239E0D
:10185000870803C7E70913474700238FE70803C733
:10186000E7091377C70F1367270035B983C7E184EA
:101870003707034093F7F70F3CB391B6B707034020
:10188000239E07082DBE8347240A93F7F7072301F9
:10189000F40A8347240A93C747002301F40A8347C5
:1018A000240A93F7C70F2301F40A11BE8347A40A41
:1018B00093F7F7072305F40A8347A40A93C7470061
:1018C0002305F40A8347A40A93F7C70F2305F40AF4
:1018D000238E0184EDB49377070489C7930700042E
:1018E0001CA4F1BC9377270095C389471CA4382416
:1018F000098B01CB03C7D18413672700A386E1843A
:101900007DBC03C7D1841377D70FCDBF9377170062
:1019100099CFA387018423870184A386018423862A
:101920000184A3010400EFF01F99854755BF18A457
:1019300079B403D6018683D6E18503D5018683D7A2
:10194000E1856366D6001D8D334505088280130549
:101950000540D5BFEFE21FA22A84E13F637FA400C8
:1019600003D5E185B70711209387473B229513756F
:10197000F53FAA9788236FE03FA27D55EDBFEFE2C8
:101980007F9F85476312F50285452545EFF0EFF609
:1019900037053000130505408545EFF0AF8C054550
:1019A000EFF07F996FE05F9F0145DDBF37061120A3
:1019B00001471306463BB347070863E3B70082803D
:1019C00083D7018603D8E185850793F7F73FE308BE
:1019D000F8FE03D801863303E50003430300329881
:1019E0002390F186230068000507F1B7EFE29F9886
:1019F0009307000433D4F50AAA85228613854199FA
:101A000093844199EFE01F9A0547238EE1843707BD
:101A1000034024C72314870A8347A70A93F7C70FF5
:101A200093E727002305F70A6FE01F97EFE29F94E3
:101A3000B7A707009387171203C7C18511EF7D373A
:101A4000B7A707009387171203C7C1851375F70F50
:101A500019C7FD17F5FB19A0FD17F9FF05456FE044
:101A6000BF93EFE2BF8E370A112001118149130A9B
:101A70004A3B1384C190054B930AA00A9304500576
:101A800001A883D7E185850793F7F73F239FF1846A
:101A90004D35637BAB000145753DAA8B05455D3D2A
:101AA000E3915BFFE31F95FC69358D4763E5A70074
:101AB00005616FE03F8D0D45713D9307800763FA27
:101AC000A70083D7E185850793F7F73F239FF1842C
:101AD000C5B793048500B3C404082AC6993DE369D9
:101AE00095FC3246014703D5E18583D70186FD5633
:101AF000630DF50083D7E185D297942383D7E185E1
:101B0000850793F7F73F239FF184B307870094A3DA
:101B10000507E34A97FCA29403C7E4FF9307500527
:101B2000E31BF7F403C7F4FF9307A00AE315F7F4E8
:101B30002C20343022873305C400B387D5006313CB
:101B4000E5063307C4000348470013F5F70FE31415
:101B5000A8F25833A183E310F7F2938741DD8CA3F9
:101B600094B319C693850191138561DDEFE09F83DE
:101B7000F52489476303F50295679387A75A3335A0
:101B8000A000FC84ED77A30DA100938757A599458C
:101B90002808230D0100FC86513D85099147E39CEF
:101BA000F9EC39B7034847000507C297B3C70708E0
:101BB00079B783A7018437470F0013070724B3D7EA
:101BC000E7022394F1861307803EB387E70223A23E
:101BD000F1868280B7F700E0D843799BD8C303A78A
:101BE000418623A407003305E502114788CB98C33B
:101BF00098431367170098C3D843058B75DF984344
:101C0000799B98C38280EFE2EFF62A841165011177
:101C100085451505B714014002C202C402C602C8B8
:101C200002CA02CC02CEEFF04FCD1D4613850480D0
:101C3000A545EFE01FEA930700207C828D473EC454
:101C40004C00E147138504803EC6EFE0BFD322C8B5
:101C500037440140B70708000C08130504803ECC48
:101C600002CA231E0100EFF00FD58545130504803D
:101C7000EFF06FDD05616FE02FF2EFE20FEE374915
:101C80000140AE89328481441309098063C5840010
:101C900022856FE0CFEF930500044A85EFF06FDCFB
:101CA0007DD9B3879900838507004A858504B3C52C
:101CB0000508EFF08FDAD9BFAA8703A5418237372D
:101CC000112013078783AA9763EBE700375711208A
:101CD000130707806365F70023A2F18282807D5598
:101CE00082806FE07FBAEFE2EFE80145493979453C
:101CF000D535B76700088C43373510201305C56606
:101D0000C9252945C13D3714014013050480EFE082
:101D1000BFBD130504C0EFE03FBD81451145EFF0A5
:101D2000CFBD81452145EFF04FBD15456535EFF03D
:101D30006F98B7E700E0116723A0E71023A0E72022
:101D40006FE08FE5EFE20FE3B787070883A7C7FFD0
:101D500001113ECCB76700089C433ECEF245624677
:101D60002EC632C479242246B245AA8637351020C1
:101D700013054568B925B52C21C16247B767A55A37
:101D8000938757AA6304F700B93F01A037351020A5
:101D90001305056BEF00C0760545D53637351020A5
:101DA0001305856EEF00C0756D3983C7A186EDDF21
:101DB00079450D350D3F01A0373510201305056D10
:101DC000D1BFEFE22FDBEFE05FAAB7270240DC577D
:101DD00037070010F98F91C7896723A4F1826FE05C
:101DE000AFDB8567DDBFEFE24FD7E13FB7141120CE
:101DF000EFE0BFA7014793848483FD5603A4C18607
:101E00003A941374F40F15E403A9C18683A7818261
:101E100003A501831309F90FB307F0407D8DEFE0AF
:101E2000BF9A13598900631D240123A601866FE020
:101E30000FD683A7C186BA97A69794A305077DBF3F
:101E400003A50183A6850504693D83A701839384C7
:101E500004109387071023A8F182F1B7EFE2EFCFC8
:101E6000138741DD043318239146054513470708BE
:101E700063ECE608B7361020938646703347D720C8
:101E80001843938741DD02873716112081461306D8
:101E90008683850763EC960683A7C186A69723A64B
:101EA000F18603A7C18683A78182636EF704EFE002
:101EB000DF9B03A50183014AEFE01F91B7171120B3
:101EC000938487831389878383A78182A183636730
:101ED000FA04814703A7C186B386F40063F5E702DD
:101EE0009822B306F90085071377F70F98A2DDB79C
:101EF000C93DB767000823A8F18223A6F18223A673
:101F000001862388018601456FE06FC803A7C1865B
:101F10008C33369732970CA38506A5BF03A50183A2
:101F2000A685050A7D3B83A7C18693840410938709
:101F300007F023A6F18683A701839387071023A8C0
:101F4000F18259B783C6018791EA85462388D186F5
:101F500003A7C18601C7413D938741DD01476369FE
:101F60009700014583A7C182BE9423A6918269BFD1
:101F700003A6C182AC2385073A9610226314B600EB
:101F80000507F1BF0545F9BF83A7C18691C3A13DF0
:101F90000D3DEFE09F8D03A5818237840708711402
:101FA0003305A040618DEFE03F821840B767A55A26
:101FB000938757AA6318F700EFE03F8B814522858E
:101FC000EFE07F85B7270240984B09451317F728A4
:101FD00098CB984B1367070898CB23880186B7677F
:101FE000000823A8F18223A6F18205472385E18614
:101FF00021BFB76700089843411101453AC4DC434B
:102000003EC62247FD57630FF700A24781CF224704
:10201000B7E739E3938797336306F7003245050541
:102020003335A000410182803288AA882E87CDEA0C
:1020300063FFC50EC167636AF618B7070001B337BF
:10204000F600B307F040E19BE1073353F600971623
:1020500000009386A67B9A96942213030002B697FB
:10206000B306F340630BF3003397D500B357F50085
:102070003318D6005D8FB318D500135608013355B9
:10208000C702B346080893D708013377C702B38560
:10209000A6024207D98F63FAB700C2971307F5FF6C
:1020A00063E4070163E8B7303A858D8F33D7C70201
:1020B000B3C80808B3F7C702B386E602C207B3E89D
:1020C000F80063FBD800C2989307F7FF63E50801A7
:1020D000791763E3D8003E874205598D8145828098
:1020E00063F5D500814501458280C16763E5F61837
:1020F000B7070001B3B7F600B307F040E19BE10773
:1021000033D8F600171700001307477042971823BB
:10211000930800023E973388E8406392E81863ED25
:10212000B6263335C500134515008145828045C666
:10213000C167637BF62413370610134717000E0799
:10214000B356E600971700009387476CB6979C2319
:1021500093060002BA97B38EF640639DF608B387E4
:10216000C5408545935606013346060833D5D70248
:1021700013D70801B3F7D7023303C502C207D98FBB
:1021800063FA6700C2971307F5FF63E4070163E092
:1021900067223A85B387674033D7D702B3C80808A8
:1021A000B3F7D7023306C702C207B3E8F80063FBF0
:1021B000C800C2989307F7FF63E50801791763E346
:1021C000C8003E874205598D82809337061093C719
:1021D00017008E079DBD8146971700009387076300
:1021E000B6979C23014793060002BA97B38EF64038
:1021F000E387F6F63318D60133D3F500935608017A
:10220000335ED302B395D501B357F500CD8F334676
:10221000080813D70701B318D5013373D302B305E8
:10222000C603420333676700637BB7004297130519
:10223000FEFF636A07176378B716791E42970D8F02
:102240003355D702B3C707083377D7023303A60243
:102250004207D98F63FB6700C2971307F5FF63E05E
:10226000071563FE67127915C29793150E01B387A0
:102270006740C98DE5BD93B7061093C717008E0759
:1022800033D8F60017170000130747584297182352
:10229000930800023E973388E840E382E8E8335E23
:1022A000E600B3960601336EDE00B3D8E500935E18
:1022B0000E01B3D7D803B39505013357E5004D8F11
:1022C00033430E089356070133160601B3F8D803BB
:1022D000B305F302C208B3E6160163FBB600F2963B
:1022E0009388F7FF63E3C60D63F1B60CF917F29616
:1022F0008D8EB3D5D60333470708B3F6D603B3089C
:10230000B302C206558F637B170172979386F5FF60
:102310006369C70963771709F9157297C207C16E18
:10232000CD8F9386FEFFB3F5D70013D30701F18E4F
:102330004182338ED50233071741B306D302935837
:102340000E01B385C502B695C6953303C30263F388
:10235000D500769393D605019A966363D7026305F9
:10236000D7003E8581458280C166FD1633F7D500D2
:102370004207337EDE00331505017297E373E5FEF5
:102380001385F7FF81458280B70700016377F60266
:102390009356060141477DB38145054582803A85C4
:1023A000E9B5B685A5BF2A8E59BDC68791B77915FF
:1023B000C297CDB37915C297CDB9935686016147BF
:1023C00051B35D7122D406D62A842EDA32DC36DE91
:1023D000BAC0BEC2C2C4C6C603A5418311C51C4D46
:1023E00081E72AC6912B32450C455418228636CEF9
:1023F000EF00B020B250225461618280011126CAE0
:1024000006CE22CC4AC84EC652C4AA8419E11C4545
:1024100002901C4D2E89ADE305239C4C8044B9CF1E
:102420009717000093878752631DF404C0407C50C7
:10243000858B99E75E2493F7072099E3284C8D2D2F
:102440005E24A18B99C31C48D5E3A28526859D2ACD
:1024500051CDFD547C50858B99E75E2493F707207E
:1024600099E3284CB925F24062444249B249224AD4
:102470002685D2440561828000455DB726856D2999
:1024800045B7971700009387674A6314F4008044A8
:1024900079BF9717000093876747E31AF4F8C044A1
:1024A00079B71CC4050963C807021C4013871700CD
:1024B00018C08CA31C4483450900FD17FDF11CC402
:1024C00063D907022286A94526853D28FD57E302E8
:1024D000F5F8A94441B7184C63C4E700E39745FDFC
:1024E000228626851520E31735FDA5B7FD59294A13
:1024F000D1B71C401387170018C0294798A3D1BF34
:10250000AA8503A54183DDBD011122CC26CA4AC894
:1025100006CE4EC6AA842E89328401C51C4D91E395
:10252000212997170000938767426317F402C04080
:102530001C4C1CC45E24A18B99C31C4895EFA2853A
:102540002685492015C97D59F2406244D244B249DA
:102550004A85424905618280971700009387073DAD
:102560006314F4008044E9B7971700009387073A93
:10257000E310F4FCC0446DBF1C4808409379F90F88
:102580001379F90F1D8D5C486346F500A2852685F9
:10259000912C55F91C440505FD171CC41C401387DC
:1025A000170018C0238037015C486388A7005E24A9
:1025B000858BD9DBA947E319F9F8A28526851D2467
:1025C00041D551B7411122C426C24AC006C683A4D0
:1025D00041832A892E8489C49C4C99E32685A92E9F
:1025E00097170000938787366313F402C040831760
:1025F000C40013F7870025E713F707010DEB254704
:102600002320E90093E707045EA47D5571A0971786
:1026100000009387A7316314F4008044C9BF971763
:1026200000009387A72EE314F4FCC044C9B7918B34
:102630009DC34C5889C9930744046384F5004A85B7
:10264000B92B232A04025E242322040093F7B7FD4A
:102650005EA41C481CC05E2493E787005EA41C484F
:1026600099EB5E241307002093F707286385E700A2
:10267000A2854A8561298317C40013F717001DC37B
:102680005848232404003307E04018CC184801457B
:1026900001E713F707083DF7B2402244924402498C
:1026A0004101828013F72700814611E3544814C486
:1026B000F1BF8397C500011122CC26CA06CE4AC8B5
:1026C0004EC613F78700AA842E8479E3D841634568
:1026D000E000B8416356E008585459C303A9040008
:1026E00023A004000C5093D7C748A9CB70485E24A0
:1026F000918B99C75C401D8E5C5899C33C401D8EE0
:102700005C540C50814626858297FD57630CF50476
:102710001C480567232204001CC05E24F98F91C366
:1027200068C84C5823A0240185CD930744046384D2
:10273000F5002685AD21232A04021DA00146854609
:1027400026850297FD572A86E313F5FA9C40C5D3E8
:1027500075476385E70059476395E70623A0240181
:102760000145B5A098408317C40001CFF546630525
:10277000D700D9466319D7041C48232204001CC083
:102780004DB718482322040093D7C74818C041BF4B
:1027900083A90501E38609FC03A905008D8B23A00D
:1027A000350133093941014791E3D84918C4E35948
:1027B00020FB1C540C50CA864E8626858297634F98
:1027C000A0008317C40093E707045EA47D55F24080
:1027D0006244D2444249B24905618280AA993309D0
:1027E000A940F1B79C49411106C622C426C281EB1B
:1027F0008144B24022442685924441018280AA84C9
:102800002E8401C51C4D91E3052A9717000093877C
:10281000E713631CF402C0408317C400F1DB785057
:10282000058B11E793F7072099E3284C512426855F
:10283000A28541357C50AA84858BC5FF5E2493F721
:102840000720C5FB284CB5246DB797170000938768
:10285000E70D6314F4008044C1B797170000938715
:10286000E70AE31BF4FAC04445BF411122C406C67F
:102870002A844EA572A523200500232205002324C7
:1028800005002322050623280500232A0500232C02
:102890000500214681451305C505EFD01FB29717E6
:1028A00000009387A7835CD0971700009387A785C4
:1028B0001CD497170000938767895CD49717000092
:1028C0009387A78BB24000D01CD82244410182805C
:1028D00097050000938545F1BDA2411126C29307DB
:1028E00080069384F5FFB384F4024AC02E8922C483
:1028F00006C693854407692E2A8401CD232005004E
:1029000023222501310508C4138684068145EFD0B2
:10291000DFAAB240228522449244024941018280CA
:102920001385818771A21385818761A21385C18771
:1029300041A21385C187B5AA411122C406C62A84C3
:10294000F5371C4C89C72244B2404101DDB79707D7
:102950000000938727F81CD42324040423260404AE
:102960002328040483A7C1836394870085471CCC74
:1029700022853D2048C02285252008C422850D20BF
:1029800048C4484001469145CD3508440546A54513
:10299000E93D48440946C945C93D85471CCC65B752
:1029A000411126C24AC006C622C42A89953F83A483
:1029B000C1839C4C99E326854137938484048044E9
:1029C000DC40FD1763D607009C40BDC38440C5BFF3
:1029D0000317C40039EBC17785075CC41305840570
:1029E00023220406E92081372146232004002324E2
:1029F00004002322040023280400232A0400232C9B
:102A0000040081451305C405EFD03F9B232A04022F
:102A1000232C04022324040423260404B240228528
:102A2000224492440249410182801304840651BF2A
:102A300091454A855D3588C02A8449F9ED35B1470D
:102A40002320F900E1BF797122D44AD04ECE52CC76
:102A50005AC85EC606D626D256CA2A892E8A1304BA
:102A600085048149054BFD5B0444832A4400FD1A1B
:102A700063D00A0200406DF8B250225492540259B9
:102A8000624AD24A424BB24B4E85F249456182803E
:102A9000DE24637BFB008397E40063877701A685D0
:102AA0004A85029AB3E9A90093848406C9B7828053
:102AB000828082805971A2D42E848395E500A6D2AB
:102AC000CAD086D6B284368963D205025E2493F7D3
:102AD00007088DEB13070040B65026542320F90059
:102AE00098C0065996540145656182803000C5251D
:102AF000E34E05FC3247BD67F98F7977BA9793B7F4
:102B00001700C9BF814713070004F9B7DE257971A3
:102B100022D406D626D24AD04ECE898B2E8491CF8F
:102B2000930774041CC01CC885475CC8B25022546B
:102B300092540259F2494561828074003000AA849F
:102B4000953FA2492A892685CE85992219E98317BE
:102B5000C40013F7072079FBF19B93E727005EA4DD
:102B6000C1B7970700009387E7D69CD45E2408C0BE
:102B700008C893E707085EA4B247232A340199CB1B
:102B80008315E4002685852D11C55E24F19B93E70E
:102B900017005EA45E2433E527014AA441BFD1CDCE
:102BA00083A7C5FF011122CC06CE1384C5FF63D3D2
:102BB00007003E942AC66525138741881C43324589
:102BC00081EB2322040000C36244F240056161AD41
:102BD000637DF4001040B306C4006396D7009443AD
:102BE000DC43B29614C05CC0F9BF3E87DC4399C396
:102BF000E37DF4FE14433306D700631F86001040C4
:102C0000B29614C33306D700E390C7FC9043DC436D
:102C1000B29614C35CC34DBF6375C400B1471CC1F9
:102C200065B71040B306C4006396D7009443DC43F5
:102C3000B29614C05CC040C341BF828041114AC0FB
:102C4000138901888327090022C426C206C6AA84E4
:102C50002E8489E78145A9292320A900A2852685FC
:102C600081297D59631A25017D54B2402285224471
:102C70009244024941018280130435007198E306B1
:102C800085FEB305A44026852521E31025FFE9BF75
:102C9000011126CA93843500F1984AC8A104B147AE
:102CA00006CE22CC4EC62A89B3F4F40A63C40400CB
:102CB00063FDB400B1472320F9000145F2406244AE
:102CC000D2444249B24905618280512B938941889F
:102CD00083A709003E8431E4A6854A858537FD57E0
:102CE0002A846316F50A03A40900A287C1EB83298D
:102CF000040081454A85A299652E6394A9081C4069
:102D00008D044A859D8CF198B147A104B3F4F40A6F
:102D1000A6852D37FD576306F5061C40A6971CC0F7
:102D200015A01440858E63C806042D47637DD70225
:102D300004C0330794006396870223A0E9005C4037
:102D400014C35CC34A8505231305B40093074400EC
:102D500061993307F540E303F5F63A94898F1CC077
:102D6000B1BFD8C3E9BF58406395870023A0E900ED
:102D7000D1BFD8C3C1BFA2874040B1BF3E84DC43AE
:102D8000B5B7B1472320F9004A85F1293DB704C101
:102D900055BF1C46FD171CC663DA0700184E63C5F5
:102DA000E700A9476394F5006FF00FF61C422E85EB
:102DB0001387170018C28CA38280011122CC26CA67
:102DC0004AC84EC652C406CE2A89AE893284B3049C
:102DD000D6007D5A63149400014501A80C204E864C
:102DE0004A85453F0504E31745FFF2406244D2445B
:102DF0004249B249224A05618280357122CD26CBF3
:102E00004AC94EC706CF52C556C35AC1DEDEE2DC00
:102E1000AA892E843289B68409C51C4D99E3EFF046
:102E2000BFB197170000938767B26318F40403A437
:102E300049007C50858B81EB5E2493F7072081E766
:102E4000284CEFF0FFC65E24A18B99C31C48A5E374
:102E5000A2854E85EFF00FF739C97C50858BA1C351
:102E60007D55FA406A44DA444A49BA492A4A9A4A9C
:102E70000A4BF65B665C0D618280971700009387B2
:102E8000E7AA6315F40003A4890065B7971700004B
:102E90009387C7A7E31FF4F803A4C90059BF5E24B2
:102EA00093F70720D5FF284CEFF0BFC055BF93071D
:102EB0000002A304F1029307000302D22305F102EA
:102EC00026C6930B5002971A0000938A2AAA294B10
:102ED000CA849C2099C363997709338C2441638DFC
:102EE0002401E2864A86A2854E85C13DFD576306D0
:102EF000F5189257E2973ED29C2063800718FD5741
:102F00001389140002C802CE3ECA02CCA3090104F0
:102F100082D483450900154656853526C247930459
:102F2000190029E513F7070109C713070002A309D0
:102F3000E10413F7870009C71307B002A309E104EE
:102F4000834609001307A0026389E602F247CA8498
:102F500081462546982093851400130707FD637268
:102F6000E60685C63ECE15A08504A5B733055541B6
:102F7000B397A72826893EC869BF32479306470002
:102F8000184336C6634807023ACE98209307E002FA
:102F9000631CF70498309307A002631AF702B24744
:102FA0008904138747009C433AC67D57B3E7E70A75
:102FB0003ECA1DA83307E04093E727003ACE3EC83B
:102FC000E9B7B3876703AE848546BA9761B78504CE
:102FD00002CA81468147254698209385140013072D
:102FE00007FD6372E606E9F68C200D461715000012
:102FF00013054598892C11CD971700009387879763
:103000001D8DC247130700043317A700D98F85040D
:103010003EC88C201946171500001305E595138945
:1030200014002304B102052435C99307000095E775
:103030004247B2471377071009CF91073EC6925710
:10304000D2973ED271B5B3876703AE848546BA97EF
:1030500061B79D07E19BA107D5B7780097060000EF
:103060009386E6D522860C084E8597000000E7007F
:103070000000FD572A8AE314F5FC7C50858B81EB18
:103080005E2493F7072081E7284CEFF09FA25E248F
:1030900093F70704E39607DC1255E1B3780097062F
:1030A00000009386C6D122860C084E85F124D1B744
:1030B000411122C42A842E8523A4018806C6EFE08C
:1030C000BFBFFD576316F50083A7818891C31CC05D
:1030D000B240224441018280411122C42E84839552
:1030E000E50006C6012B634905007C48AA977CC809
:1030F000B2402244410182805E249397C7485EA477
:10310000C5BFDE25011122CC26CA4AC84EC606CE4E
:1031100093F70710AA842E843289B68991C78395C4
:10312000E50089460146DD285E248315E400F2406F
:103130009397C7485EA46244CE864A86B249424904
:103140002685D24405611DA8411122C42E84839591
:10315000E50006C6E1207D575E246319E5009397DC
:10316000C7485EA4B2402244410182809397C72899
:1031700068C85EA4C5BF8395E5003DA0411122C487
:103180002A842E85B285368623A4018806C6EFE000
:10319000DFAEFD576316F50083A7818891C31CC07D
:1031A000B240224441018280411122C42A842E85EA
:1031B00023A4018806C6A521FD576316F50083A741
:1031C000818891C31CC0B2402244410182804111D8
:1031D00022C42A842E85B28523A4018806C6B12183
:1031E000FD576316F50083A7818891C31CC0B240C8
:1031F000224441018280411122C42A842E8523A4C5
:10320000018806C60D29FD576316F50083A781883E
:1032100091C31CC0B240224441018280411122C4AA
:103220002A842E85B285368623A4018806C61129F4
:10323000FD576316F50083A7818891C31CC0B24077
:1032400022444101828093F5F50F2A966314C5004C
:10325000014582801C21E38EB7FE0505C5BF13859D
:1032600041876FF0FF84138541876FF09F847971E8
:1032700056CA9C49BA8A984522D44AD04ECE52CCDE
:1032800006D626D25AC85EC6B3E7E70A1CC203C7F1
:103290003504AA892E843289368A19C385071CC24F
:1032A0001C4093F7070291C7832709008907232051
:1032B000F9000440998891E8130B9401FD5B5C448C
:1032C00003270900998F63CCF40483473404B33691
:1032D000F0001C4093F70702A5EB13063404D285D7
:1032E0004E85829AFD576303F5041C4011478144C3
:1032F000998B6399E7008327090044449D8C81479B
:10330000B3E4F40A1C4418486354F700998FBE9440
:10331000014969047D5B63982405014509A8854638
:103320005A86D2854E85829A631E75017D55B250AC
:10333000225492540259F249624AD24A424BB24B49
:10334000456182808504A5BF3307D40013060003BE
:10335000A301C7040347540493871600A297890664
:10336000A381E7049DBF85462286D2854E85829A39
:10337000E30E65FB050945B7797122D44AD04ECEDC
:1033800052CC06D626D256CA5AC803C8850193071E
:1033900080072A892E84B289368A63E2070393075D
:1033A00020069386350463E10703630C081C93072A
:1033B0008005170600001306A65C6308F814930442
:1033C00024042301040515A89307D8F993F7F70FF0
:1033D0005546E366F6FE170600001306E65CB3C723
:1033E000C7209C43B29782871C439384250493860D
:1033F00047009C4314C32381F504854775A290417F
:103400001C43137506089385470029C19C430CC3D0
:10341000584063DF07129305D002A301B40418C417
:10342000635E0702B307F040170600001306465517
:103430002948B68433F70703FD143297182398A060
:103440003E87B3D70703E37707FF85A09C43137537
:1034500006040CC355DD939757605DBF6D9A10C08D
:10346000D1B790411C43137506089385470001C5E9
:103470000CC39C4331A0137606040CC37DDA9E2353
:103480001307F006170600001306864F6310E80CBA
:103490002148A3010404584018C4E34C07F80C4029
:1034A000ED990CC0D9F7B68449F7A147631EF8001F
:1034B0001C40858B91CB58401C4863C7E70093079D
:1034C0000003A38FF4FEFD14858E14C85287CE86A8
:1034D0007000A2854A85EFF09FD9FD5A631A550DF9
:1034E0007D55B250225492540259F249624AD24A4E
:1034F000424B456182809C4193E707029CC11308BF
:103500008007170600001306E648A30204050C40D6
:103510001C4313F80508138547006305080008C31A
:103520009C4339A013F8050408C3E30B08FE9E234F
:1035300013F7150001C793E505020CC099C3414874
:1035400089BF18401377F7FD18C0D5BF294891B738
:10355000170600001306C642294835BF90411C4398
:10356000CC4913780608138547006306080008C392
:103570009C438CC339A008C3137606049C4375DAB8
:103580008EA323280400B68491B71C43D041814503
:103590009386470014C384432685EFF0DFCA01C534
:1035A000B30795405CC05C401CC8A301040439BF4C
:1035B00014482686CE854A85029AE30355F31C40BB
:1035C000898B85E74844B2473365F50A19BF8546BC
:1035D0005686CE854A85029AE30465F185045C44EB
:1035E0003247998FE3C5F4FEF1BF8144930A9401F9
:1035F0007D5BF5B7411122C42A842E85B2853686BB
:1036000023A4018806C6A120FD576316F50083A7F1
:10361000818891C31CC0B24022444101828093073B
:10362000800523A4F1887D5582809307800523A41B
:10363000F1887D5582809307800523A4F188014598
:1036400082809307800523A4F1887D5582809307AB
:10365000800523A4F1887D5582800000537973741E
:10366000656D436C6B3A25640D0A000056334620A5
:1036700053797374656D436F7265436C6B3A25645F
:103680000D0A0000E6151020F4141020621410201A
:103690006E15102062141020BC141020E4131020AA
:1036A00062141020CA141020E0141020E01510201D
:1036B0006013102016033000310032003300340054
:1036C0003500360037003800390000001C03430085
:1036D00048003300320020004C0041002000490027
:1036E0004100500020004300440043000E037700D7
:1036F000630068002E0063006E00000009024B00AA
:103700000201008032080B000202020100090400DD
:10371000000102020100052400100105240100013E
:1037200004240202052406000107058103080001A4
:1037300009040100020A000000070502024000001F
:10374000070583024000000012010002EF02014061
:10375000861A395501010102030100006A756D7076
:103760002041505020617070303D2530386C780D0C
:103770000A00000049415020626F6F742061707030
:10378000303D2530386C7820666C61673D253038D7
:103790006C782076616C69643D25640D0A00000038
:1037A00049415020666C6167207365742C207374E6
:1037B000617920666F7220757067726164650D00B3
:1037C00041505020696E76616C69642C207374617D
:1037D00079204941500D0000494150204344432085
:1037E00072656164792028314138363A353533398C
:1037F000290D0000981D1020001E1020541E1020BE
:10380000981E1020161E102000010202030303035D
:103810000404040404040404050505050505050560
:103820000505050505050505060606060606060640
:103830000606060606060606060606060606060628
:103840000606060606060606070707070707070710
:1038500007070707070707070707070707070707F8
:1038600007070707070707070707070707070707E8
:1038700007070707070707070707070707070707D8
:1038800007070707070707070808080808080808C0
:1038900008080808080808080808080808080808A8
:1038A0000808080808080808080808080808080898
:1038B0000808080808080808080808080808080888
:1038C0000808080808080808080808080808080878
:1038D0000808080808080808080808080808080868
:1038E0000808080808080808080808080808080858
:1038F0000808080808080808080808080808080848
:103900000808080808080808000000000000000077
:1039100000000000000000000000000000000000A7
:103920000000000000000000000000000000000097
:103930000000000000000000000000000000000087
:103940000000000000000000000000000000000077
:103950000000000000000000000000000000000067
:103960000000000000000000232D302B200000008C
:10397000686C4C006566674546470000303132335D
:10398000343536373839414243444546000000005B
:1039900030313233343536373839616263646566C5
:1039A0000000000044FAFFFF5AFAFFFF1AFAFFFF77
:1039B0001AFAFFFF1AFAFFFF1AFAFFFF5AFAFFFF7F
:1039C0001AFAFFFF1AFAFFFF1AFAFFFF1AFAFFFFAF
:1039D000B8FBFFFFBEFAFFFF52FBFFFF1AFAFFFF23
:1039E0001AFAFFFFE6FBFFFF1AFAFFFFBEFAFFFF1E
:0C39F0001AFAFFFF1AFAFFFF5AFBFFFF54
:1039FC0097D11020938141FE171111201301C15F43
:103A0C001305800097C510209385055F17C61020FD
:103A1C001306066D63FAC5008322050023A055002A
:103A2C0011059105E3EAC5FE97C01020E780C05C44
:103A3C00B70237129382123E739002BC8542739088
:103A4C0012BCAD427390428099629382820873904B
:103A5C00023097C20F209382225A93E23200739065
:103A6C00523097D20F209382428873901234730095
:043A7C0020300000F6
:103A8000191C1E202326282D32383C40464C505A03
:103A900000000000000000000102030406070809FE
:103AA000040607081109130A150B170C190D0E0F40
:103AB000101112131416181A1C1E20222426283B3B
:103AC000191C1E202326282D32383C40464C505AC3
:103AD00000000000000000000102030406070809BE
:103AE000040607081109130A150B170C190D0E0F00
:103AF000101112131416181A1C1E20222426283BFB
:103B000000000000583810203838102018381020D5
:103B100000000000000000000000000000000000A5
:103B20000000000000000000000000000000000095
:103B30000000000000000000000000000000000085
:103B40000000000000000000000000000000000075
:103B50000000000000000000000000000000000065
:103B60000001020200E1F5050084D71702040608EF
:103B700000000000010203040001020200C2010073
:103B80000000080038281120002000000060000814
:103B90000060000880011120040309048001112045
:00000001FF
